{
  "contractName": "DynamicNFT",
  "abi": [
    {
      "inputs": [],
      "stateMutability": "nonpayable",
      "type": "constructor"
    },
    {
      "inputs": [
        {
          "internalType": "address",
          "name": "sender",
          "type": "address"
        },
        {
          "internalType": "uint256",
          "name": "tokenId",
          "type": "uint256"
        },
        {
          "internalType": "address",
          "name": "owner",
          "type": "address"
        }
      ],
      "name": "ERC721IncorrectOwner",
      "type": "error"
    },
    {
      "inputs": [
        {
          "internalType": "address",
          "name": "operator",
          "type": "address"
        },
        {
          "internalType": "uint256",
          "name": "tokenId",
          "type": "uint256"
        }
      ],
      "name": "ERC721InsufficientApproval",
      "type": "error"
    },
    {
      "inputs": [
        {
          "internalType": "address",
          "name": "approver",
          "type": "address"
        }
      ],
      "name": "ERC721InvalidApprover",
      "type": "error"
    },
    {
      "inputs": [
        {
          "internalType": "address",
          "name": "operator",
          "type": "address"
        }
      ],
      "name": "ERC721InvalidOperator",
      "type": "error"
    },
    {
      "inputs": [
        {
          "internalType": "address",
          "name": "owner",
          "type": "address"
        }
      ],
      "name": "ERC721InvalidOwner",
      "type": "error"
    },
    {
      "inputs": [
        {
          "internalType": "address",
          "name": "receiver",
          "type": "address"
        }
      ],
      "name": "ERC721InvalidReceiver",
      "type": "error"
    },
    {
      "inputs": [
        {
          "internalType": "address",
          "name": "sender",
          "type": "address"
        }
      ],
      "name": "ERC721InvalidSender",
      "type": "error"
    },
    {
      "inputs": [
        {
          "internalType": "uint256",
          "name": "tokenId",
          "type": "uint256"
        }
      ],
      "name": "ERC721NonexistentToken",
      "type": "error"
    },
    {
      "inputs": [
        {
          "internalType": "address",
          "name": "owner",
          "type": "address"
        }
      ],
      "name": "OwnableInvalidOwner",
      "type": "error"
    },
    {
      "inputs": [
        {
          "internalType": "address",
          "name": "account",
          "type": "address"
        }
      ],
      "name": "OwnableUnauthorizedAccount",
      "type": "error"
    },
    {
      "anonymous": false,
      "inputs": [
        {
          "indexed": true,
          "internalType": "address",
          "name": "owner",
          "type": "address"
        },
        {
          "indexed": true,
          "internalType": "address",
          "name": "approved",
          "type": "address"
        },
        {
          "indexed": true,
          "internalType": "uint256",
          "name": "tokenId",
          "type": "uint256"
        }
      ],
      "name": "Approval",
      "type": "event"
    },
    {
      "anonymous": false,
      "inputs": [
        {
          "indexed": true,
          "internalType": "address",
          "name": "owner",
          "type": "address"
        },
        {
          "indexed": true,
          "internalType": "address",
          "name": "operator",
          "type": "address"
        },
        {
          "indexed": false,
          "internalType": "bool",
          "name": "approved",
          "type": "bool"
        }
      ],
      "name": "ApprovalForAll",
      "type": "event"
    },
    {
      "anonymous": false,
      "inputs": [
        {
          "indexed": true,
          "internalType": "uint256",
          "name": "tokenId",
          "type": "uint256"
        },
        {
          "indexed": false,
          "internalType": "uint256",
          "name": "xp",
          "type": "uint256"
        },
        {
          "indexed": false,
          "internalType": "uint256",
          "name": "level",
          "type": "uint256"
        },
        {
          "indexed": false,
          "internalType": "string",
          "name": "traits",
          "type": "string"
        }
      ],
      "name": "MetadataUpdated",
      "type": "event"
    },
    {
      "anonymous": false,
      "inputs": [
        {
          "indexed": true,
          "internalType": "uint256",
          "name": "tokenId",
          "type": "uint256"
        },
        {
          "indexed": true,
          "internalType": "address",
          "name": "owner",
          "type": "address"
        }
      ],
      "name": "Minted",
      "type": "event"
    },
    {
      "anonymous": false,
      "inputs": [
        {
          "indexed": true,
          "internalType": "address",
          "name": "previousOwner",
          "type": "address"
        },
        {
          "indexed": true,
          "internalType": "address",
          "name": "newOwner",
          "type": "address"
        }
      ],
      "name": "OwnershipTransferred",
      "type": "event"
    },
    {
      "anonymous": false,
      "inputs": [
        {
          "indexed": true,
          "internalType": "address",
          "name": "from",
          "type": "address"
        },
        {
          "indexed": true,
          "internalType": "address",
          "name": "to",
          "type": "address"
        },
        {
          "indexed": true,
          "internalType": "uint256",
          "name": "tokenId",
          "type": "uint256"
        }
      ],
      "name": "Transfer",
      "type": "event"
    },
    {
      "inputs": [
        {
          "internalType": "address",
          "name": "to",
          "type": "address"
        },
        {
          "internalType": "uint256",
          "name": "tokenId",
          "type": "uint256"
        }
      ],
      "name": "approve",
      "outputs": [],
      "stateMutability": "nonpayable",
      "type": "function"
    },
    {
      "inputs": [
        {
          "internalType": "address",
          "name": "owner",
          "type": "address"
        }
      ],
      "name": "balanceOf",
      "outputs": [
        {
          "internalType": "uint256",
          "name": "",
          "type": "uint256"
        }
      ],
      "stateMutability": "view",
      "type": "function"
    },
    {
      "inputs": [],
      "name": "demoMode",
      "outputs": [
        {
          "internalType": "bool",
          "name": "",
          "type": "bool"
        }
      ],
      "stateMutability": "view",
      "type": "function"
    },
    {
      "inputs": [
        {
          "internalType": "uint256",
          "name": "tokenId",
          "type": "uint256"
        }
      ],
      "name": "getApproved",
      "outputs": [
        {
          "internalType": "address",
          "name": "",
          "type": "address"
        }
      ],
      "stateMutability": "view",
      "type": "function"
    },
    {
      "inputs": [
        {
          "internalType": "address",
          "name": "owner",
          "type": "address"
        },
        {
          "internalType": "address",
          "name": "operator",
          "type": "address"
        }
      ],
      "name": "isApprovedForAll",
      "outputs": [
        {
          "internalType": "bool",
          "name": "",
          "type": "bool"
        }
      ],
      "stateMutability": "view",
      "type": "function"
    },
    {
      "inputs": [
        {
          "internalType": "uint256",
          "name": "",
          "type": "uint256"
        }
      ],
      "name": "meta",
      "outputs": [
        {
          "internalType": "uint256",
          "name": "xp",
          "type": "uint256"
        },
        {
          "internalType": "uint256",
          "name": "level",
          "type": "uint256"
        },
        {
          "internalType": "string",
          "name": "traits",
          "type": "string"
        }
      ],
      "stateMutability": "view",
      "type": "function"
    },
    {
      "inputs": [],
      "name": "name",
      "outputs": [
        {
          "internalType": "string",
          "name": "",
          "type": "string"
        }
      ],
      "stateMutability": "view",
      "type": "function"
    },
    {
      "inputs": [],
      "name": "nextId",
      "outputs": [
        {
          "internalType": "uint256",
          "name": "",
          "type": "uint256"
        }
      ],
      "stateMutability": "view",
      "type": "function"
    },
    {
      "inputs": [],
      "name": "owner",
      "outputs": [
        {
          "internalType": "address",
          "name": "",
          "type": "address"
        }
      ],
      "stateMutability": "view",
      "type": "function"
    },
    {
      "inputs": [
        {
          "internalType": "uint256",
          "name": "tokenId",
          "type": "uint256"
        }
      ],
      "name": "ownerOf",
      "outputs": [
        {
          "internalType": "address",
          "name": "",
          "type": "address"
        }
      ],
      "stateMutability": "view",
      "type": "function"
    },
    {
      "inputs": [],
      "name": "renounceOwnership",
      "outputs": [],
      "stateMutability": "nonpayable",
      "type": "function"
    },
    {
      "inputs": [
        {
          "internalType": "address",
          "name": "from",
          "type": "address"
        },
        {
          "internalType": "address",
          "name": "to",
          "type": "address"
        },
        {
          "internalType": "uint256",
          "name": "tokenId",
          "type": "uint256"
        }
      ],
      "name": "safeTransferFrom",
      "outputs": [],
      "stateMutability": "nonpayable",
      "type": "function"
    },
    {
      "inputs": [
        {
          "internalType": "address",
          "name": "from",
          "type": "address"
        },
        {
          "internalType": "address",
          "name": "to",
          "type": "address"
        },
        {
          "internalType": "uint256",
          "name": "tokenId",
          "type": "uint256"
        },
        {
          "internalType": "bytes",
          "name": "data",
          "type": "bytes"
        }
      ],
      "name": "safeTransferFrom",
      "outputs": [],
      "stateMutability": "nonpayable",
      "type": "function"
    },
    {
      "inputs": [
        {
          "internalType": "address",
          "name": "operator",
          "type": "address"
        },
        {
          "internalType": "bool",
          "name": "approved",
          "type": "bool"
        }
      ],
      "name": "setApprovalForAll",
      "outputs": [],
      "stateMutability": "nonpayable",
      "type": "function"
    },
    {
      "inputs": [
        {
          "internalType": "bytes4",
          "name": "interfaceId",
          "type": "bytes4"
        }
      ],
      "name": "supportsInterface",
      "outputs": [
        {
          "internalType": "bool",
          "name": "",
          "type": "bool"
        }
      ],
      "stateMutability": "view",
      "type": "function"
    },
    {
      "inputs": [],
      "name": "symbol",
      "outputs": [
        {
          "internalType": "string",
          "name": "",
          "type": "string"
        }
      ],
      "stateMutability": "view",
      "type": "function"
    },
    {
      "inputs": [
        {
          "internalType": "uint256",
          "name": "tokenId",
          "type": "uint256"
        }
      ],
      "name": "tokenURI",
      "outputs": [
        {
          "internalType": "string",
          "name": "",
          "type": "string"
        }
      ],
      "stateMutability": "view",
      "type": "function"
    },
    {
      "inputs": [
        {
          "internalType": "address",
          "name": "from",
          "type": "address"
        },
        {
          "internalType": "address",
          "name": "to",
          "type": "address"
        },
        {
          "internalType": "uint256",
          "name": "tokenId",
          "type": "uint256"
        }
      ],
      "name": "transferFrom",
      "outputs": [],
      "stateMutability": "nonpayable",
      "type": "function"
    },
    {
      "inputs": [
        {
          "internalType": "address",
          "name": "newOwner",
          "type": "address"
        }
      ],
      "name": "transferOwnership",
      "outputs": [],
      "stateMutability": "nonpayable",
      "type": "function"
    },
    {
      "inputs": [
        {
          "internalType": "bool",
          "name": "v",
          "type": "bool"
        }
      ],
      "name": "setDemoMode",
      "outputs": [],
      "stateMutability": "nonpayable",
      "type": "function"
    },
    {
      "inputs": [
        {
          "internalType": "address",
          "name": "to",
          "type": "address"
        }
      ],
      "name": "mint",
      "outputs": [
        {
          "internalType": "uint256",
          "name": "",
          "type": "uint256"
        }
      ],
      "stateMutability": "nonpayable",
      "type": "function"
    },
    {
      "inputs": [
        {
          "internalType": "uint256",
          "name": "tokenId",
          "type": "uint256"
        },
        {
          "internalType": "uint256",
          "name": "addXp",
          "type": "uint256"
        },
        {
          "internalType": "string",
          "name": "traits",
          "type": "string"
        }
      ],
      "name": "updateMetadata",
      "outputs": [],
      "stateMutability": "nonpayable",
      "type": "function"
    },
    {
      "inputs": [
        {
          "internalType": "uint256",
          "name": "tokenId",
          "type": "uint256"
        }
      ],
      "name": "tokenMetadata",
      "outputs": [
        {
          "internalType": "uint256",
          "name": "xp",
          "type": "uint256"
        },
        {
          "internalType": "uint256",
          "name": "level",
          "type": "uint256"
        },
        {
          "internalType": "string",
          "name": "traits",
          "type": "string"
        }
      ],
      "stateMutability": "view",
      "type": "function"
    }
  ],
  "bytecode": "0x60806040526006805460ff60a01b1916600160a01b17905534801562000023575f80fd5b50336040518060400160405280601381526020017f48617368696e674865726f7344796e616d6963000000000000000000000000008152506040518060400160405280600381526020016212121160ea1b815250815f9081620000879190620001ca565b506001620000968282620001ca565b5050506001600160a01b038116620000c757604051631e4fbdf760e01b81525f600482015260240160405180910390fd5b620000d281620000d9565b5062000292565b600680546001600160a01b038381166001600160a01b0319831681179093556040519116919082907f8be0079c531659141344cd1fd0a4f28419497f9722a3daafe3b4186f6b6457e0905f90a35050565b634e487b7160e01b5f52604160045260245ffd5b600181811c908216806200015357607f821691505b6020821081036200017257634e487b7160e01b5f52602260045260245ffd5b50919050565b601f821115620001c5575f81815260208120601f850160051c81016020861015620001a05750805b601f850160051c820191505b81811015620001c157828155600101620001ac565b5050505b505050565b81516001600160401b03811115620001e657620001e66200012a565b620001fe81620001f784546200013e565b8462000178565b602080601f83116001811462000234575f84156200021c5750858301515b5f19600386901b1c1916600185901b178555620001c1565b5f85815260208120601f198616915b82811015620002645788860151825594840194600190910190840162000243565b50858210156200028257878501515f19600388901b60f8161c191681555b5050505050600190811b01905550565b61188580620002a05f395ff3fe608060405234801561000f575f80fd5b5060043610610148575f3560e01c806370a08231116100bf578063b88d4fde11610079578063b88d4fde146102bc578063c87b56dd146102cf578063cd5cfdaf146102e2578063e985e9c5146102f5578063f2fde38b14610308578063ff09a1a41461031b575f80fd5b806370a0823114610262578063715018a6146102755780637edadd541461027d5780638da5cb5b1461029057806395d89b41146102a1578063a22cb465146102a9575f80fd5b806342842e0e1161011057806342842e0e146101dc57806344ba06d5146101ef57806361b8ce8c146102035780636352211e1461021a5780636914db601461022d5780636a6278421461024f575f80fd5b806301ffc9a71461014c57806306fdde0314610174578063081812fc14610189578063095ea7b3146101b457806323b872dd146101c9575b5f80fd5b61015f61015a366004611196565b61032e565b60405190151581526020015b60405180910390f35b61017c61037f565b60405161016b91906111fe565b61019c610197366004611210565b61040e565b6040516001600160a01b03909116815260200161016b565b6101c76101c236600461123d565b610435565b005b6101c76101d7366004611265565b610444565b6101c76101ea366004611265565b6104d2565b60065461015f90600160a01b900460ff1681565b61020c60085481565b60405190815260200161016b565b61019c610228366004611210565b6104f1565b61024061023b366004611210565b6104fb565b60405161016b9392919061129e565b61020c61025d3660046112c5565b6105db565b61020c6102703660046112c5565b6106dd565b6101c7610722565b6101c761028b3660046112ed565b610735565b6006546001600160a01b031661019c565b61017c61079d565b6101c76102b7366004611306565b6107ac565b6101c76102ca36600461134b565b6107b7565b61017c6102dd366004611210565b6107cf565b6102406102f0366004611210565b610840565b61015f610303366004611420565b6108e8565b6101c76103163660046112c5565b610915565b6101c7610329366004611448565b610952565b5f6001600160e01b031982166380ac58cd60e01b148061035e57506001600160e01b03198216635b5e139f60e01b145b8061037957506301ffc9a760e01b6001600160e01b03198316145b92915050565b60605f805461038d906114c1565b80601f01602080910402602001604051908101604052809291908181526020018280546103b9906114c1565b80156104045780601f106103db57610100808354040283529160200191610404565b820191905f5260205f20905b8154815290600101906020018083116103e757829003601f168201915b5050505050905090565b5f61041882610a42565b505f828152600460205260409020546001600160a01b0316610379565b610440828233610a7a565b5050565b6001600160a01b03821661047257604051633250574960e11b81525f60048201526024015b60405180910390fd5b5f61047e838333610a87565b9050836001600160a01b0316816001600160a01b0316146104cc576040516364283d7b60e01b81526001600160a01b0380861660048301526024820184905282166044820152606401610469565b50505050565b6104ec83838360405180602001604052805f8152506107b7565b505050565b5f61037982610a42565b5f8060605f60075f8681526020019081526020015f206040518060600160405290815f82015481526020016001820154815260200160028201805461053f906114c1565b80601f016020809104026020016040519081016040528092919081815260200182805461056b906114c1565b80156105b65780601f1061058d576101008083540402835291602001916105b6565b820191905f5260205f20905b81548152906001019060200180831161059957829003601f168201915b5050509190925250508151602083015160409093015190989297509550909350505050565b6006545f90600160a01b900460ff1661062757336106016006546001600160a01b031690565b6001600160a01b0316146106275760405162461bcd60e51b8152600401610469906114f9565b60088054905f61063683611530565b919050555061064782600854610b79565b604080516060810182525f808252600160208084018281528551808301875284815285870190815260085485526007909252949092208351815593519084015551909190600282019061069a908261158d565b50506008546040516001600160a01b03851692507fb9203d657e9c0ec8274c818292ab0f58b04e1970050716891770eb1bab5d655e905f90a3506008545b919050565b5f6001600160a01b038216610707576040516322718ad960e21b81525f6004820152602401610469565b506001600160a01b03165f9081526003602052604090205490565b61072a610b92565b6107335f610bbf565b565b600654600160a01b900460ff1661077f57336107596006546001600160a01b031690565b6001600160a01b03161461077f5760405162461bcd60e51b8152600401610469906114f9565b60068054911515600160a01b0260ff60a01b19909216919091179055565b60606001805461038d906114c1565b610440338383610c10565b6107c2848484610444565b6104cc3385858585610cae565b60606107da82610a42565b505f6107f060408051602081019091525f815290565b90505f81511161080e5760405180602001604052805f815250610839565b8061081884610dd6565b604051602001610829929190611649565b6040516020818303038152906040525b9392505050565b60076020525f908152604090208054600182015460028301805492939192610867906114c1565b80601f0160208091040260200160405190810160405280929190818152602001828054610893906114c1565b80156108de5780601f106108b5576101008083540402835291602001916108de565b820191905f5260205f20905b8154815290600101906020018083116108c157829003601f168201915b5050505050905083565b6001600160a01b039182165f90815260056020908152604080832093909416825291909152205460ff1690565b61091d610b92565b6001600160a01b03811661094657604051631e4fbdf760e01b81525f6004820152602401610469565b61094f81610bbf565b50565b600654600160a01b900460ff1661099c57336109766006546001600160a01b031690565b6001600160a01b03161461099c5760405162461bcd60e51b8152600401610469906114f9565b5f8481526007602052604081208054909185918391906109bd908490611677565b909155505080546109d09060c89061168a565b6109db906001611677565b600182015581156109f757600281016109f58385836116a9565b505b8054600182015460405187927fc9445fc1cb389040e1a81bfc7f969312efc3633b1c26a9cf03ecd7678d56c5db92610a33926002870190611764565b60405180910390a25050505050565b5f818152600260205260408120546001600160a01b03168061037957604051637e27328960e01b815260048101849052602401610469565b6104ec8383836001610e66565b5f828152600260205260408120546001600160a01b0390811690831615610ab357610ab3818486610f6a565b6001600160a01b03811615610aed57610ace5f855f80610e66565b6001600160a01b0381165f90815260036020526040902080545f190190555b6001600160a01b03851615610b1b576001600160a01b0385165f908152600360205260409020805460010190555b5f8481526002602052604080822080546001600160a01b0319166001600160a01b0389811691821790925591518793918516917fddf252ad1be2c89b69c2b068fc378daa952ba7f163c4a11628f55a4df523b3ef91a4949350505050565b610440828260405180602001604052805f815250610fce565b6006546001600160a01b031633146107335760405163118cdaa760e01b8152336004820152602401610469565b600680546001600160a01b038381166001600160a01b0319831681179093556040519116919082907f8be0079c531659141344cd1fd0a4f28419497f9722a3daafe3b4186f6b6457e0905f90a35050565b6001600160a01b038216610c4257604051630b61174360e31b81526001600160a01b0383166004820152602401610469565b6001600160a01b038381165f81815260056020908152604080832094871680845294825291829020805460ff191686151590811790915591519182527f17307eab39ab6107e8899845ad3d59bd9653f200f220920489ca2b5937696c31910160405180910390a3505050565b6001600160a01b0383163b15610dcf57604051630a85bd0160e11b81526001600160a01b0384169063150b7a0290610cf09088908890879087906004016117f8565b6020604051808303815f875af1925050508015610d2a575060408051601f3d908101601f19168201909252610d2791810190611834565b60015b610d91573d808015610d57576040519150601f19603f3d011682016040523d82523d5f602084013e610d5c565b606091505b5080515f03610d8957604051633250574960e11b81526001600160a01b0385166004820152602401610469565b805160208201fd5b6001600160e01b03198116630a85bd0160e11b14610dcd57604051633250574960e11b81526001600160a01b0385166004820152602401610469565b505b5050505050565b60605f610de283610fe5565b60010190505f8167ffffffffffffffff811115610e0157610e01611337565b6040519080825280601f01601f191660200182016040528015610e2b576020820181803683370190505b5090508181016020015b5f19016f181899199a1a9b1b9c1cb0b131b232b360811b600a86061a8153600a8504945084610e3557509392505050565b8080610e7a57506001600160a01b03821615155b15610f3b575f610e8984610a42565b90506001600160a01b03831615801590610eb55750826001600160a01b0316816001600160a01b031614155b8015610ec85750610ec681846108e8565b155b15610ef15760405163a9fbf51f60e01b81526001600160a01b0384166004820152602401610469565b8115610f395783856001600160a01b0316826001600160a01b03167f8c5be1e5ebec7d5bd14f71427d1e84f3dd0314c0f7b2291e5b200ac8c7c3b92560405160405180910390a45b505b50505f90815260046020526040902080546001600160a01b0319166001600160a01b0392909216919091179055565b610f758383836110bc565b6104ec576001600160a01b038316610fa357604051637e27328960e01b815260048101829052602401610469565b60405163177e802f60e01b81526001600160a01b038316600482015260248101829052604401610469565b610fd88383611120565b6104ec335f858585610cae565b5f8072184f03e93ff9f4daa797ed6e38ed64bf6a1f0160401b83106110235772184f03e93ff9f4daa797ed6e38ed64bf6a1f0160401b830492506040015b6d04ee2d6d415b85acef8100000000831061104f576d04ee2d6d415b85acef8100000000830492506020015b662386f26fc10000831061106d57662386f26fc10000830492506010015b6305f5e1008310611085576305f5e100830492506008015b612710831061109957612710830492506004015b606483106110ab576064830492506002015b600a83106103795760010192915050565b5f6001600160a01b038316158015906111185750826001600160a01b0316846001600160a01b031614806110f557506110f584846108e8565b8061111857505f828152600460205260409020546001600160a01b038481169116145b949350505050565b6001600160a01b03821661114957604051633250574960e11b81525f6004820152602401610469565b5f61115583835f610a87565b90506001600160a01b038116156104ec576040516339e3563760e11b81525f6004820152602401610469565b6001600160e01b03198116811461094f575f80fd5b5f602082840312156111a6575f80fd5b813561083981611181565b5f5b838110156111cb5781810151838201526020016111b3565b50505f910152565b5f81518084526111ea8160208601602086016111b1565b601f01601f19169290920160200192915050565b602081525f61083960208301846111d3565b5f60208284031215611220575f80fd5b5035919050565b80356001600160a01b03811681146106d8575f80fd5b5f806040838503121561124e575f80fd5b61125783611227565b946020939093013593505050565b5f805f60608486031215611277575f80fd5b61128084611227565b925061128e60208501611227565b9150604084013590509250925092565b838152826020820152606060408201525f6112bc60608301846111d3565b95945050505050565b5f602082840312156112d5575f80fd5b61083982611227565b803580151581146106d8575f80fd5b5f602082840312156112fd575f80fd5b610839826112de565b5f8060408385031215611317575f80fd5b61132083611227565b915061132e602084016112de565b90509250929050565b634e487b7160e01b5f52604160045260245ffd5b5f805f806080858703121561135e575f80fd5b61136785611227565b935061137560208601611227565b925060408501359150606085013567ffffffffffffffff80821115611398575f80fd5b818701915087601f8301126113ab575f80fd5b8135818111156113bd576113bd611337565b604051601f8201601f19908116603f011681019083821181831017156113e5576113e5611337565b816040528281528a60208487010111156113fd575f80fd5b826020860160208301375f60208483010152809550505050505092959194509250565b5f8060408385031215611431575f80fd5b61143a83611227565b915061132e60208401611227565b5f805f806060858703121561145b575f80fd5b8435935060208501359250604085013567ffffffffffffffff80821115611480575f80fd5b818701915087601f830112611493575f80fd5b8135818111156114a1575f80fd5b8860208285010111156114b2575f80fd5b95989497505060200194505050565b600181811c908216806114d557607f821691505b6020821081036114f357634e487b7160e01b5f52602260045260245ffd5b50919050565b6020808252600990820152682737ba1037bbb732b960b91b604082015260600190565b634e487b7160e01b5f52601160045260245ffd5b5f600182016115415761154161151c565b5060010190565b601f8211156104ec575f81815260208120601f850160051c8101602086101561156e5750805b601f850160051c820191505b81811015610dcd5782815560010161157a565b815167ffffffffffffffff8111156115a7576115a7611337565b6115bb816115b584546114c1565b84611548565b602080601f8311600181146115ee575f84156115d75750858301515b5f19600386901b1c1916600185901b178555610dcd565b5f85815260208120601f198616915b8281101561161c578886015182559484019460019091019084016115fd565b508582101561163957878501515f19600388901b60f8161c191681555b5050505050600190811b01905550565b5f835161165a8184602088016111b1565b83519083019061166e8183602088016111b1565b01949350505050565b808201808211156103795761037961151c565b5f826116a457634e487b7160e01b5f52601260045260245ffd5b500490565b67ffffffffffffffff8311156116c1576116c1611337565b6116d5836116cf83546114c1565b83611548565b5f601f841160018114611706575f85156116ef5750838201355b5f19600387901b1c1916600186901b178355610dcf565b5f83815260209020601f19861690835b828110156117365786850135825560209485019460019092019101611716565b5086821015611752575f1960f88860031b161c19848701351681555b505060018560011b0183555050505050565b8381525f60208481840152606060408401525f8454611782816114c1565b806060870152608060018084165f81146117a357600181146117bd576117e8565b60ff1985168984015283151560051b8901830195506117e8565b895f52865f205f5b858110156117e05781548b82018601529083019088016117c5565b8a0184019650505b50939a9950505050505050505050565b6001600160a01b03858116825284166020820152604081018390526080606082018190525f9061182a908301846111d3565b9695505050505050565b5f60208284031215611844575f80fd5b81516108398161118156fea2646970667358221220c0758f7eddcfd823dde0e0ba495bdff0b7727b73a168768ae64b60c68df6bc9464736f6c63430008140033",
  "immutableReferences": {},
  "source": "// SPDX-License-Identifier: MIT\r\npragma solidity ^0.8.20;\r\n\r\nimport \"@openzeppelin/contracts/token/ERC721/ERC721.sol\";\r\nimport \"@openzeppelin/contracts/access/Ownable.sol\";\r\n\r\ncontract DynamicNFT is ERC721, Ownable {\r\n\r\n// ---- Demo mode helper (for Wave-2 demos) ----\r\nbool public demoMode = true;\r\n\r\nmodifier onlyOwnerOrDemo() {\r\n    if (!demoMode) {\r\n        require(owner() == msg.sender, \"Not owner\");\r\n    }\r\n    _;\r\n}\r\n\r\nfunction setDemoMode(bool v) external onlyOwnerOrDemo {\r\n    demoMode = v;\r\n}\r\n// ---------------------------------------------\r\n\r\n    struct Meta { uint256 xp; uint256 level; string traits; }\r\n    mapping(uint256 => Meta) public meta;\r\n    uint256 public nextId;\r\n\r\n    event Minted(uint256 indexed tokenId, address indexed owner);\r\n    event MetadataUpdated(uint256 indexed tokenId, uint256 xp, uint256 level, string traits);\r\n\r\n    constructor() ERC721(\"HashingHerosDynamic\",\"HHD\") Ownable(msg.sender) {}\r\n\r\n    function mint(address to) external onlyOwnerOrDemo returns (uint256) {\r\n        nextId++;\r\n        _safeMint(to, nextId);\r\n        meta[nextId] = Meta({ xp:0, level:1, traits:\"\" });\r\n        emit Minted(nextId, to);\r\n        return nextId;\r\n    }\r\n\r\n    // Owner-only update for demo; replace with role-based logic for production\r\n    function updateMetadata(uint256 tokenId, uint256 addXp, string calldata traits) external onlyOwnerOrDemo {\r\n        Meta storage m = meta[tokenId];\r\n        m.xp += addXp;\r\n        m.level = (m.xp / 200) + 1; // level thresholds tuned for demo\r\n        if (bytes(traits).length > 0) m.traits = traits;\r\n        emit MetadataUpdated(tokenId, m.xp, m.level, m.traits);\r\n    }\r\n\r\n    function tokenMetadata(uint256 tokenId) external view returns (uint256 xp, uint256 level, string memory traits) {\r\n        Meta memory m = meta[tokenId];\r\n        return (m.xp, m.level, m.traits);\r\n    }\r\n}\r\n",
  "sourcePath": "C:\\hashheros\\Hash-Heros\\contracts\\DynamicNFT.sol",
  "compiler": {
    "name": "solc",
    "version": "0.8.20+commit.a1b79de6.Emscripten.clang"
  },
  "schemaVersion": "3.4.16",
  "updatedAt": "2025-12-13T22:25:00.803Z",
  "devdoc": {
    "errors": {
      "ERC721IncorrectOwner(address,uint256,address)": [
        {
          "details": "Indicates an error related to the ownership over a particular token. Used in transfers.",
          "params": {
            "owner": "Address of the current owner of a token.",
            "sender": "Address whose tokens are being transferred.",
            "tokenId": "Identifier number of a token."
          }
        }
      ],
      "ERC721InsufficientApproval(address,uint256)": [
        {
          "details": "Indicates a failure with the `operator`s approval. Used in transfers.",
          "params": {
            "operator": "Address that may be allowed to operate on tokens without being their owner.",
            "tokenId": "Identifier number of a token."
          }
        }
      ],
      "ERC721InvalidApprover(address)": [
        {
          "details": "Indicates a failure with the `approver` of a token to be approved. Used in approvals.",
          "params": {
            "approver": "Address initiating an approval operation."
          }
        }
      ],
      "ERC721InvalidOperator(address)": [
        {
          "details": "Indicates a failure with the `operator` to be approved. Used in approvals.",
          "params": {
            "operator": "Address that may be allowed to operate on tokens without being their owner."
          }
        }
      ],
      "ERC721InvalidOwner(address)": [
        {
          "details": "Indicates that an address can't be an owner. For example, `address(0)` is a forbidden owner in ERC-20. Used in balance queries.",
          "params": {
            "owner": "Address of the current owner of a token."
          }
        }
      ],
      "ERC721InvalidReceiver(address)": [
        {
          "details": "Indicates a failure with the token `receiver`. Used in transfers.",
          "params": {
            "receiver": "Address to which tokens are being transferred."
          }
        }
      ],
      "ERC721InvalidSender(address)": [
        {
          "details": "Indicates a failure with the token `sender`. Used in transfers.",
          "params": {
            "sender": "Address whose tokens are being transferred."
          }
        }
      ],
      "ERC721NonexistentToken(uint256)": [
        {
          "details": "Indicates a `tokenId` whose `owner` is the zero address.",
          "params": {
            "tokenId": "Identifier number of a token."
          }
        }
      ],
      "OwnableInvalidOwner(address)": [
        {
          "details": "The owner is not a valid owner account. (eg. `address(0)`)"
        }
      ],
      "OwnableUnauthorizedAccount(address)": [
        {
          "details": "The caller account is not authorized to perform an operation."
        }
      ]
    },
    "events": {
      "Approval(address,address,uint256)": {
        "details": "Emitted when `owner` enables `approved` to manage the `tokenId` token."
      },
      "ApprovalForAll(address,address,bool)": {
        "details": "Emitted when `owner` enables or disables (`approved`) `operator` to manage all of its assets."
      },
      "Transfer(address,address,uint256)": {
        "details": "Emitted when `tokenId` token is transferred from `from` to `to`."
      }
    },
    "kind": "dev",
    "methods": {
      "approve(address,uint256)": {
        "details": "Gives permission to `to` to transfer `tokenId` token to another account. The approval is cleared when the token is transferred. Only a single account can be approved at a time, so approving the zero address clears previous approvals. Requirements: - The caller must own the token or be an approved operator. - `tokenId` must exist. Emits an {Approval} event."
      },
      "balanceOf(address)": {
        "details": "Returns the number of tokens in ``owner``'s account."
      },
      "getApproved(uint256)": {
        "details": "Returns the account approved for `tokenId` token. Requirements: - `tokenId` must exist."
      },
      "isApprovedForAll(address,address)": {
        "details": "Returns if the `operator` is allowed to manage all of the assets of `owner`. See {setApprovalForAll}"
      },
      "name()": {
        "details": "Returns the token collection name."
      },
      "owner()": {
        "details": "Returns the address of the current owner."
      },
      "ownerOf(uint256)": {
        "details": "Returns the owner of the `tokenId` token. Requirements: - `tokenId` must exist."
      },
      "renounceOwnership()": {
        "details": "Leaves the contract without owner. It will not be possible to call `onlyOwner` functions. Can only be called by the current owner. NOTE: Renouncing ownership will leave the contract without an owner, thereby disabling any functionality that is only available to the owner."
      },
      "safeTransferFrom(address,address,uint256)": {
        "details": "Safely transfers `tokenId` token from `from` to `to`, checking first that contract recipients are aware of the ERC-721 protocol to prevent tokens from being forever locked. Requirements: - `from` cannot be the zero address. - `to` cannot be the zero address. - `tokenId` token must exist and be owned by `from`. - If the caller is not `from`, it must have been allowed to move this token by either {approve} or   {setApprovalForAll}. - If `to` refers to a smart contract, it must implement {IERC721Receiver-onERC721Received}, which is called upon   a safe transfer. Emits a {Transfer} event."
      },
      "safeTransferFrom(address,address,uint256,bytes)": {
        "details": "Safely transfers `tokenId` token from `from` to `to`. Requirements: - `from` cannot be the zero address. - `to` cannot be the zero address. - `tokenId` token must exist and be owned by `from`. - If the caller is not `from`, it must be approved to move this token by either {approve} or {setApprovalForAll}. - If `to` refers to a smart contract, it must implement {IERC721Receiver-onERC721Received}, which is called upon   a safe transfer. Emits a {Transfer} event."
      },
      "setApprovalForAll(address,bool)": {
        "details": "Approve or remove `operator` as an operator for the caller. Operators can call {transferFrom} or {safeTransferFrom} for any token owned by the caller. Requirements: - The `operator` cannot be the address zero. Emits an {ApprovalForAll} event."
      },
      "supportsInterface(bytes4)": {
        "details": "Returns true if this contract implements the interface defined by `interfaceId`. See the corresponding https://eips.ethereum.org/EIPS/eip-165#how-interfaces-are-identified[ERC section] to learn more about how these ids are created. This function call must use less than 30 000 gas."
      },
      "symbol()": {
        "details": "Returns the token collection symbol."
      },
      "tokenURI(uint256)": {
        "details": "Returns the Uniform Resource Identifier (URI) for `tokenId` token."
      },
      "transferFrom(address,address,uint256)": {
        "details": "Transfers `tokenId` token from `from` to `to`. WARNING: Note that the caller is responsible to confirm that the recipient is capable of receiving ERC-721 or else they may be permanently lost. Usage of {safeTransferFrom} prevents loss, though the caller must understand this adds an external call which potentially creates a reentrancy vulnerability. Requirements: - `from` cannot be the zero address. - `to` cannot be the zero address. - `tokenId` token must be owned by `from`. - If the caller is not `from`, it must be approved to move this token by either {approve} or {setApprovalForAll}. Emits a {Transfer} event."
      },
      "transferOwnership(address)": {
        "details": "Transfers ownership of the contract to a new account (`newOwner`). Can only be called by the current owner."
      }
    },
    "version": 1
  },
  "userdoc": {
    "kind": "user",
    "methods": {},
    "version": 1
  }
}