{
  "contractName": "FastTransfer",
  "abi": [
    {
      "inputs": [],
      "stateMutability": "nonpayable",
      "type": "constructor"
    },
    {
      "inputs": [
        {
          "internalType": "address",
          "name": "owner",
          "type": "address"
        }
      ],
      "name": "OwnableInvalidOwner",
      "type": "error"
    },
    {
      "inputs": [
        {
          "internalType": "address",
          "name": "account",
          "type": "address"
        }
      ],
      "name": "OwnableUnauthorizedAccount",
      "type": "error"
    },
    {
      "anonymous": false,
      "inputs": [
        {
          "indexed": true,
          "internalType": "address",
          "name": "from",
          "type": "address"
        },
        {
          "indexed": true,
          "internalType": "address",
          "name": "to",
          "type": "address"
        },
        {
          "indexed": false,
          "internalType": "uint256",
          "name": "tokenId",
          "type": "uint256"
        },
        {
          "indexed": false,
          "internalType": "uint256",
          "name": "timestamp",
          "type": "uint256"
        }
      ],
      "name": "FastSent",
      "type": "event"
    },
    {
      "anonymous": false,
      "inputs": [
        {
          "indexed": true,
          "internalType": "address",
          "name": "previousOwner",
          "type": "address"
        },
        {
          "indexed": true,
          "internalType": "address",
          "name": "newOwner",
          "type": "address"
        }
      ],
      "name": "OwnershipTransferred",
      "type": "event"
    },
    {
      "inputs": [],
      "name": "demoMode",
      "outputs": [
        {
          "internalType": "bool",
          "name": "",
          "type": "bool"
        }
      ],
      "stateMutability": "view",
      "type": "function"
    },
    {
      "inputs": [],
      "name": "owner",
      "outputs": [
        {
          "internalType": "address",
          "name": "",
          "type": "address"
        }
      ],
      "stateMutability": "view",
      "type": "function"
    },
    {
      "inputs": [],
      "name": "renounceOwnership",
      "outputs": [],
      "stateMutability": "nonpayable",
      "type": "function"
    },
    {
      "inputs": [
        {
          "internalType": "address",
          "name": "newOwner",
          "type": "address"
        }
      ],
      "name": "transferOwnership",
      "outputs": [],
      "stateMutability": "nonpayable",
      "type": "function"
    },
    {
      "inputs": [
        {
          "internalType": "bool",
          "name": "v",
          "type": "bool"
        }
      ],
      "name": "setDemoMode",
      "outputs": [],
      "stateMutability": "nonpayable",
      "type": "function"
    },
    {
      "inputs": [
        {
          "internalType": "address",
          "name": "from",
          "type": "address"
        },
        {
          "internalType": "address",
          "name": "to",
          "type": "address"
        },
        {
          "internalType": "uint256",
          "name": "tokenId",
          "type": "uint256"
        }
      ],
      "name": "instantAcknowledge",
      "outputs": [],
      "stateMutability": "nonpayable",
      "type": "function"
    }
  ],
  "bytecode": "0x60806040525f805460ff60a01b1916600160a01b179055348015610021575f80fd5b50338061004757604051631e4fbdf760e01b81525f600482015260240160405180910390fd5b61005081610056565b506100a5565b5f80546001600160a01b038381166001600160a01b0319831681178455604051919092169283917f8be0079c531659141344cd1fd0a4f28419497f9722a3daafe3b4186f6b6457e09190a35050565b610350806100b25f395ff3fe608060405234801561000f575f80fd5b5060043610610060575f3560e01c806344ba06d514610064578063715018a61461008c5780637edadd54146100965780638da5cb5b146100a9578063b3a49a87146100c3578063f2fde38b146100d6575b5f80fd5b5f5461007790600160a01b900460ff1681565b60405190151581526020015b60405180910390f35b6100946100e9565b005b6100946100a4366004610287565b6100fc565b5f546040516001600160a01b039091168152602001610083565b6100946100d13660046102c8565b610182565b6100946100e4366004610301565b6101cf565b6100f161020c565b6100fa5f610238565b565b5f54600160a01b900460ff16610165573361011e5f546001600160a01b031690565b6001600160a01b0316146101655760405162461bcd60e51b81526020600482015260096024820152682737ba1037bbb732b960b91b60448201526064015b60405180910390fd5b5f8054911515600160a01b0260ff60a01b19909216919091179055565b604080518281524260208201526001600160a01b0380851692908616917f50cbe137dad299739537f2b7c7cea4025d95be697b1d898711bb9f7d4cbf71be910160405180910390a3505050565b6101d761020c565b6001600160a01b03811661020057604051631e4fbdf760e01b81525f600482015260240161015c565b61020981610238565b50565b5f546001600160a01b031633146100fa5760405163118cdaa760e01b815233600482015260240161015c565b5f80546001600160a01b038381166001600160a01b0319831681178455604051919092169283917f8be0079c531659141344cd1fd0a4f28419497f9722a3daafe3b4186f6b6457e09190a35050565b5f60208284031215610297575f80fd5b813580151581146102a6575f80fd5b9392505050565b80356001600160a01b03811681146102c3575f80fd5b919050565b5f805f606084860312156102da575f80fd5b6102e3846102ad565b92506102f1602085016102ad565b9150604084013590509250925092565b5f60208284031215610311575f80fd5b6102a6826102ad56fea2646970667358221220a5c30d7bcc8ac4826a661de938e9a05fbc6540313e03bb9539f1d56fce36419764736f6c63430008140033",
  "immutableReferences": {},
  "source": "// SPDX-License-Identifier: MIT\r\npragma solidity ^0.8.20;\r\n\r\nimport \"@openzeppelin/contracts/access/Ownable.sol\";\r\n\r\ncontract FastTransfer is Ownable {\r\n    constructor() Ownable(msg.sender) {}\r\n\r\n// ---- Demo mode helper (for Wave-2 demos) ----\r\nbool public demoMode = true;\r\n\r\nmodifier onlyOwnerOrDemo() {\r\n    if (!demoMode) {\r\n        require(owner() == msg.sender, \"Not owner\");\r\n    }\r\n    _;\r\n}\r\n\r\nfunction setDemoMode(bool v) external onlyOwnerOrDemo {\r\n    demoMode = v;\r\n}\r\n// ---------------------------------------------\r\n\r\n    event FastSent(address indexed from, address indexed to, uint256 tokenId, uint256 timestamp);\r\n\r\n    function instantAcknowledge(address from, address to, uint256 tokenId) external {\r\n        emit FastSent(from, to, tokenId, block.timestamp);\r\n    }\r\n}\r\n",
  "sourcePath": "C:\\hashheros\\Hash-Heros\\contracts\\FastTransfer.sol",
  "compiler": {
    "name": "solc",
    "version": "0.8.20+commit.a1b79de6.Emscripten.clang"
  },
  "schemaVersion": "3.4.16",
  "updatedAt": "2025-12-13T22:25:00.812Z",
  "devdoc": {
    "errors": {
      "OwnableInvalidOwner(address)": [
        {
          "details": "The owner is not a valid owner account. (eg. `address(0)`)"
        }
      ],
      "OwnableUnauthorizedAccount(address)": [
        {
          "details": "The caller account is not authorized to perform an operation."
        }
      ]
    },
    "kind": "dev",
    "methods": {
      "owner()": {
        "details": "Returns the address of the current owner."
      },
      "renounceOwnership()": {
        "details": "Leaves the contract without owner. It will not be possible to call `onlyOwner` functions. Can only be called by the current owner. NOTE: Renouncing ownership will leave the contract without an owner, thereby disabling any functionality that is only available to the owner."
      },
      "transferOwnership(address)": {
        "details": "Transfers ownership of the contract to a new account (`newOwner`). Can only be called by the current owner."
      }
    },
    "version": 1
  },
  "userdoc": {
    "kind": "user",
    "methods": {},
    "version": 1
  }
}