{
  "contractName": "ReputationNFT",
  "abi": [
    {
      "inputs": [],
      "stateMutability": "nonpayable",
      "type": "constructor"
    },
    {
      "inputs": [
        {
          "internalType": "address",
          "name": "sender",
          "type": "address"
        },
        {
          "internalType": "uint256",
          "name": "tokenId",
          "type": "uint256"
        },
        {
          "internalType": "address",
          "name": "owner",
          "type": "address"
        }
      ],
      "name": "ERC721IncorrectOwner",
      "type": "error"
    },
    {
      "inputs": [
        {
          "internalType": "address",
          "name": "operator",
          "type": "address"
        },
        {
          "internalType": "uint256",
          "name": "tokenId",
          "type": "uint256"
        }
      ],
      "name": "ERC721InsufficientApproval",
      "type": "error"
    },
    {
      "inputs": [
        {
          "internalType": "address",
          "name": "approver",
          "type": "address"
        }
      ],
      "name": "ERC721InvalidApprover",
      "type": "error"
    },
    {
      "inputs": [
        {
          "internalType": "address",
          "name": "operator",
          "type": "address"
        }
      ],
      "name": "ERC721InvalidOperator",
      "type": "error"
    },
    {
      "inputs": [
        {
          "internalType": "address",
          "name": "owner",
          "type": "address"
        }
      ],
      "name": "ERC721InvalidOwner",
      "type": "error"
    },
    {
      "inputs": [
        {
          "internalType": "address",
          "name": "receiver",
          "type": "address"
        }
      ],
      "name": "ERC721InvalidReceiver",
      "type": "error"
    },
    {
      "inputs": [
        {
          "internalType": "address",
          "name": "sender",
          "type": "address"
        }
      ],
      "name": "ERC721InvalidSender",
      "type": "error"
    },
    {
      "inputs": [
        {
          "internalType": "uint256",
          "name": "tokenId",
          "type": "uint256"
        }
      ],
      "name": "ERC721NonexistentToken",
      "type": "error"
    },
    {
      "inputs": [
        {
          "internalType": "address",
          "name": "owner",
          "type": "address"
        }
      ],
      "name": "OwnableInvalidOwner",
      "type": "error"
    },
    {
      "inputs": [
        {
          "internalType": "address",
          "name": "account",
          "type": "address"
        }
      ],
      "name": "OwnableUnauthorizedAccount",
      "type": "error"
    },
    {
      "anonymous": false,
      "inputs": [
        {
          "indexed": true,
          "internalType": "address",
          "name": "owner",
          "type": "address"
        },
        {
          "indexed": true,
          "internalType": "address",
          "name": "approved",
          "type": "address"
        },
        {
          "indexed": true,
          "internalType": "uint256",
          "name": "tokenId",
          "type": "uint256"
        }
      ],
      "name": "Approval",
      "type": "event"
    },
    {
      "anonymous": false,
      "inputs": [
        {
          "indexed": true,
          "internalType": "address",
          "name": "owner",
          "type": "address"
        },
        {
          "indexed": true,
          "internalType": "address",
          "name": "operator",
          "type": "address"
        },
        {
          "indexed": false,
          "internalType": "bool",
          "name": "approved",
          "type": "bool"
        }
      ],
      "name": "ApprovalForAll",
      "type": "event"
    },
    {
      "anonymous": false,
      "inputs": [
        {
          "indexed": true,
          "internalType": "uint256",
          "name": "id",
          "type": "uint256"
        },
        {
          "indexed": true,
          "internalType": "address",
          "name": "to",
          "type": "address"
        }
      ],
      "name": "IdentityMinted",
      "type": "event"
    },
    {
      "anonymous": false,
      "inputs": [
        {
          "indexed": true,
          "internalType": "address",
          "name": "previousOwner",
          "type": "address"
        },
        {
          "indexed": true,
          "internalType": "address",
          "name": "newOwner",
          "type": "address"
        }
      ],
      "name": "OwnershipTransferred",
      "type": "event"
    },
    {
      "anonymous": false,
      "inputs": [
        {
          "indexed": true,
          "internalType": "address",
          "name": "user",
          "type": "address"
        },
        {
          "indexed": false,
          "internalType": "uint256",
          "name": "newScore",
          "type": "uint256"
        }
      ],
      "name": "ReputationChanged",
      "type": "event"
    },
    {
      "anonymous": false,
      "inputs": [
        {
          "indexed": true,
          "internalType": "address",
          "name": "from",
          "type": "address"
        },
        {
          "indexed": true,
          "internalType": "address",
          "name": "to",
          "type": "address"
        },
        {
          "indexed": true,
          "internalType": "uint256",
          "name": "tokenId",
          "type": "uint256"
        }
      ],
      "name": "Transfer",
      "type": "event"
    },
    {
      "inputs": [
        {
          "internalType": "address",
          "name": "to",
          "type": "address"
        },
        {
          "internalType": "uint256",
          "name": "tokenId",
          "type": "uint256"
        }
      ],
      "name": "approve",
      "outputs": [],
      "stateMutability": "nonpayable",
      "type": "function"
    },
    {
      "inputs": [
        {
          "internalType": "address",
          "name": "owner",
          "type": "address"
        }
      ],
      "name": "balanceOf",
      "outputs": [
        {
          "internalType": "uint256",
          "name": "",
          "type": "uint256"
        }
      ],
      "stateMutability": "view",
      "type": "function"
    },
    {
      "inputs": [],
      "name": "demoMode",
      "outputs": [
        {
          "internalType": "bool",
          "name": "",
          "type": "bool"
        }
      ],
      "stateMutability": "view",
      "type": "function"
    },
    {
      "inputs": [
        {
          "internalType": "uint256",
          "name": "tokenId",
          "type": "uint256"
        }
      ],
      "name": "getApproved",
      "outputs": [
        {
          "internalType": "address",
          "name": "",
          "type": "address"
        }
      ],
      "stateMutability": "view",
      "type": "function"
    },
    {
      "inputs": [
        {
          "internalType": "address",
          "name": "owner",
          "type": "address"
        },
        {
          "internalType": "address",
          "name": "operator",
          "type": "address"
        }
      ],
      "name": "isApprovedForAll",
      "outputs": [
        {
          "internalType": "bool",
          "name": "",
          "type": "bool"
        }
      ],
      "stateMutability": "view",
      "type": "function"
    },
    {
      "inputs": [],
      "name": "name",
      "outputs": [
        {
          "internalType": "string",
          "name": "",
          "type": "string"
        }
      ],
      "stateMutability": "view",
      "type": "function"
    },
    {
      "inputs": [],
      "name": "nextId",
      "outputs": [
        {
          "internalType": "uint256",
          "name": "",
          "type": "uint256"
        }
      ],
      "stateMutability": "view",
      "type": "function"
    },
    {
      "inputs": [],
      "name": "owner",
      "outputs": [
        {
          "internalType": "address",
          "name": "",
          "type": "address"
        }
      ],
      "stateMutability": "view",
      "type": "function"
    },
    {
      "inputs": [
        {
          "internalType": "uint256",
          "name": "tokenId",
          "type": "uint256"
        }
      ],
      "name": "ownerOf",
      "outputs": [
        {
          "internalType": "address",
          "name": "",
          "type": "address"
        }
      ],
      "stateMutability": "view",
      "type": "function"
    },
    {
      "inputs": [],
      "name": "renounceOwnership",
      "outputs": [],
      "stateMutability": "nonpayable",
      "type": "function"
    },
    {
      "inputs": [
        {
          "internalType": "address",
          "name": "",
          "type": "address"
        }
      ],
      "name": "reputation",
      "outputs": [
        {
          "internalType": "uint256",
          "name": "",
          "type": "uint256"
        }
      ],
      "stateMutability": "view",
      "type": "function"
    },
    {
      "inputs": [
        {
          "internalType": "address",
          "name": "from",
          "type": "address"
        },
        {
          "internalType": "address",
          "name": "to",
          "type": "address"
        },
        {
          "internalType": "uint256",
          "name": "tokenId",
          "type": "uint256"
        }
      ],
      "name": "safeTransferFrom",
      "outputs": [],
      "stateMutability": "nonpayable",
      "type": "function"
    },
    {
      "inputs": [
        {
          "internalType": "address",
          "name": "from",
          "type": "address"
        },
        {
          "internalType": "address",
          "name": "to",
          "type": "address"
        },
        {
          "internalType": "uint256",
          "name": "tokenId",
          "type": "uint256"
        },
        {
          "internalType": "bytes",
          "name": "data",
          "type": "bytes"
        }
      ],
      "name": "safeTransferFrom",
      "outputs": [],
      "stateMutability": "nonpayable",
      "type": "function"
    },
    {
      "inputs": [
        {
          "internalType": "address",
          "name": "operator",
          "type": "address"
        },
        {
          "internalType": "bool",
          "name": "approved",
          "type": "bool"
        }
      ],
      "name": "setApprovalForAll",
      "outputs": [],
      "stateMutability": "nonpayable",
      "type": "function"
    },
    {
      "inputs": [
        {
          "internalType": "bytes4",
          "name": "interfaceId",
          "type": "bytes4"
        }
      ],
      "name": "supportsInterface",
      "outputs": [
        {
          "internalType": "bool",
          "name": "",
          "type": "bool"
        }
      ],
      "stateMutability": "view",
      "type": "function"
    },
    {
      "inputs": [],
      "name": "symbol",
      "outputs": [
        {
          "internalType": "string",
          "name": "",
          "type": "string"
        }
      ],
      "stateMutability": "view",
      "type": "function"
    },
    {
      "inputs": [
        {
          "internalType": "uint256",
          "name": "tokenId",
          "type": "uint256"
        }
      ],
      "name": "tokenURI",
      "outputs": [
        {
          "internalType": "string",
          "name": "",
          "type": "string"
        }
      ],
      "stateMutability": "view",
      "type": "function"
    },
    {
      "inputs": [
        {
          "internalType": "address",
          "name": "from",
          "type": "address"
        },
        {
          "internalType": "address",
          "name": "to",
          "type": "address"
        },
        {
          "internalType": "uint256",
          "name": "tokenId",
          "type": "uint256"
        }
      ],
      "name": "transferFrom",
      "outputs": [],
      "stateMutability": "nonpayable",
      "type": "function"
    },
    {
      "inputs": [
        {
          "internalType": "address",
          "name": "newOwner",
          "type": "address"
        }
      ],
      "name": "transferOwnership",
      "outputs": [],
      "stateMutability": "nonpayable",
      "type": "function"
    },
    {
      "inputs": [
        {
          "internalType": "bool",
          "name": "v",
          "type": "bool"
        }
      ],
      "name": "setDemoMode",
      "outputs": [],
      "stateMutability": "nonpayable",
      "type": "function"
    },
    {
      "inputs": [
        {
          "internalType": "address",
          "name": "to",
          "type": "address"
        }
      ],
      "name": "mintIdentity",
      "outputs": [
        {
          "internalType": "uint256",
          "name": "",
          "type": "uint256"
        }
      ],
      "stateMutability": "nonpayable",
      "type": "function"
    },
    {
      "inputs": [
        {
          "internalType": "address",
          "name": "user",
          "type": "address"
        },
        {
          "internalType": "uint256",
          "name": "delta",
          "type": "uint256"
        }
      ],
      "name": "addReputation",
      "outputs": [],
      "stateMutability": "nonpayable",
      "type": "function"
    },
    {
      "inputs": [
        {
          "internalType": "address",
          "name": "user",
          "type": "address"
        }
      ],
      "name": "getReputation",
      "outputs": [
        {
          "internalType": "uint256",
          "name": "",
          "type": "uint256"
        }
      ],
      "stateMutability": "view",
      "type": "function"
    }
  ],
  "bytecode": "0x60806040526006805460ff60a01b1916600160a01b17905534801562000023575f80fd5b50336040518060400160405280600f81526020016e048617368696e674865726f7352657608c1b8152506040518060400160405280600381526020016224242960e91b815250815f9081620000799190620001bc565b506001620000888282620001bc565b5050506001600160a01b038116620000b957604051631e4fbdf760e01b81525f600482015260240160405180910390fd5b620000c481620000cb565b5062000284565b600680546001600160a01b038381166001600160a01b0319831681179093556040519116919082907f8be0079c531659141344cd1fd0a4f28419497f9722a3daafe3b4186f6b6457e0905f90a35050565b634e487b7160e01b5f52604160045260245ffd5b600181811c908216806200014557607f821691505b6020821081036200016457634e487b7160e01b5f52602260045260245ffd5b50919050565b601f821115620001b7575f81815260208120601f850160051c81016020861015620001925750805b601f850160051c820191505b81811015620001b3578281556001016200019e565b5050505b505050565b81516001600160401b03811115620001d857620001d86200011c565b620001f081620001e9845462000130565b846200016a565b602080601f83116001811462000226575f84156200020e5750858301515b5f19600386901b1c1916600185901b178555620001b3565b5f85815260208120601f198616915b82811015620002565788860151825594840194600190910190840162000235565b50858210156200027457878501515f19600388901b60f8161c191681555b5050505050600190811b01905550565b61138f80620002925f395ff3fe608060405234801561000f575f80fd5b5060043610610148575f3560e01c80637edadd54116100bf578063b88d4fde11610079578063b88d4fde146102c2578063b9f79451146102d5578063c87b56dd146102f4578063e24f831314610307578063e985e9c51461031a578063f2fde38b1461032d575f80fd5b80637edadd541461024857806386f666221461025b5780638da5cb5b1461026e57806395d89b411461027f5780639c89a0e214610287578063a22cb465146102af575f80fd5b806342842e0e1161011057806342842e0e146101dc57806344ba06d5146101ef57806361b8ce8c146102035780636352211e1461021a57806370a082311461022d578063715018a614610240575f80fd5b806301ffc9a71461014c57806306fdde0314610174578063081812fc14610189578063095ea7b3146101b457806323b872dd146101c9575b5f80fd5b61015f61015a366004610faf565b610340565b60405190151581526020015b60405180910390f35b61017c610391565b60405161016b9190611017565b61019c610197366004611029565b610420565b6040516001600160a01b03909116815260200161016b565b6101c76101c2366004611056565b610447565b005b6101c76101d736600461107e565b610456565b6101c76101ea36600461107e565b6104e4565b60065461015f90600160a01b900460ff1681565b61020c60085481565b60405190815260200161016b565b61019c610228366004611029565b610503565b61020c61023b3660046110b7565b61050d565b6101c7610552565b6101c76102563660046110df565b610565565b61020c6102693660046110b7565b6105cd565b6006546001600160a01b031661019c565b61017c610688565b61020c6102953660046110b7565b6001600160a01b03165f9081526007602052604090205490565b6101c76102bd3660046110f8565b610697565b6101c76102d036600461113d565b6106a2565b61020c6102e33660046110b7565b60076020525f908152604090205481565b61017c610302366004611029565b6106ba565b6101c7610315366004611056565b61072b565b61015f610328366004611212565b6107f1565b6101c761033b3660046110b7565b61081e565b5f6001600160e01b031982166380ac58cd60e01b148061037057506001600160e01b03198216635b5e139f60e01b145b8061038b57506301ffc9a760e01b6001600160e01b03198316145b92915050565b60605f805461039f9061123a565b80601f01602080910402602001604051908101604052809291908181526020018280546103cb9061123a565b80156104165780601f106103ed57610100808354040283529160200191610416565b820191905f5260205f20905b8154815290600101906020018083116103f957829003601f168201915b5050505050905090565b5f61042a8261085b565b505f828152600460205260409020546001600160a01b031661038b565b610452828233610893565b5050565b6001600160a01b03821661048457604051633250574960e11b81525f60048201526024015b60405180910390fd5b5f6104908383336108a0565b9050836001600160a01b0316816001600160a01b0316146104de576040516364283d7b60e01b81526001600160a01b038086166004830152602482018490528216604482015260640161047b565b50505050565b6104fe83838360405180602001604052805f8152506106a2565b505050565b5f61038b8261085b565b5f6001600160a01b038216610537576040516322718ad960e21b81525f600482015260240161047b565b506001600160a01b03165f9081526003602052604090205490565b61055a610992565b6105635f6109bf565b565b600654600160a01b900460ff166105af57336105896006546001600160a01b031690565b6001600160a01b0316146105af5760405162461bcd60e51b815260040161047b90611272565b60068054911515600160a01b0260ff60a01b19909216919091179055565b6006545f90600160a01b900460ff1661061957336105f36006546001600160a01b031690565b6001600160a01b0316146106195760405162461bcd60e51b815260040161047b90611272565b60088054905f610628836112a9565b919050555061063982600854610a10565b6001600160a01b0382165f81815260076020526040808220829055600854905190917f7f178fecffa466588e3ea01670368648d110b755d02bb0f25217c22a3faa567191a3506008545b919050565b60606001805461039f9061123a565b610452338383610a29565b6106ad848484610456565b6104de3385858585610ac7565b60606106c58261085b565b505f6106db60408051602081019091525f815290565b90505f8151116106f95760405180602001604052805f815250610724565b8061070384610bef565b6040516020016107149291906112c1565b6040516020818303038152906040525b9392505050565b600654600160a01b900460ff16610775573361074f6006546001600160a01b031690565b6001600160a01b0316146107755760405162461bcd60e51b815260040161047b90611272565b6001600160a01b0382165f908152600760205260408120805483929061079c9084906112ef565b90915550506001600160a01b0382165f818152600760209081526040918290205491519182527f02346ddcf76c3b1b394a4bdae70f10059e1b203aa11e9c1b0313e4a94db67322910160405180910390a25050565b6001600160a01b039182165f90815260056020908152604080832093909416825291909152205460ff1690565b610826610992565b6001600160a01b03811661084f57604051631e4fbdf760e01b81525f600482015260240161047b565b610858816109bf565b50565b5f818152600260205260408120546001600160a01b03168061038b57604051637e27328960e01b81526004810184905260240161047b565b6104fe8383836001610c7f565b5f828152600260205260408120546001600160a01b03908116908316156108cc576108cc818486610d83565b6001600160a01b03811615610906576108e75f855f80610c7f565b6001600160a01b0381165f90815260036020526040902080545f190190555b6001600160a01b03851615610934576001600160a01b0385165f908152600360205260409020805460010190555b5f8481526002602052604080822080546001600160a01b0319166001600160a01b0389811691821790925591518793918516917fddf252ad1be2c89b69c2b068fc378daa952ba7f163c4a11628f55a4df523b3ef91a4949350505050565b6006546001600160a01b031633146105635760405163118cdaa760e01b815233600482015260240161047b565b600680546001600160a01b038381166001600160a01b0319831681179093556040519116919082907f8be0079c531659141344cd1fd0a4f28419497f9722a3daafe3b4186f6b6457e0905f90a35050565b610452828260405180602001604052805f815250610de7565b6001600160a01b038216610a5b57604051630b61174360e31b81526001600160a01b038316600482015260240161047b565b6001600160a01b038381165f81815260056020908152604080832094871680845294825291829020805460ff191686151590811790915591519182527f17307eab39ab6107e8899845ad3d59bd9653f200f220920489ca2b5937696c31910160405180910390a3505050565b6001600160a01b0383163b15610be857604051630a85bd0160e11b81526001600160a01b0384169063150b7a0290610b09908890889087908790600401611302565b6020604051808303815f875af1925050508015610b43575060408051601f3d908101601f19168201909252610b409181019061133e565b60015b610baa573d808015610b70576040519150601f19603f3d011682016040523d82523d5f602084013e610b75565b606091505b5080515f03610ba257604051633250574960e11b81526001600160a01b038516600482015260240161047b565b805160208201fd5b6001600160e01b03198116630a85bd0160e11b14610be657604051633250574960e11b81526001600160a01b038516600482015260240161047b565b505b5050505050565b60605f610bfb83610dfe565b60010190505f8167ffffffffffffffff811115610c1a57610c1a611129565b6040519080825280601f01601f191660200182016040528015610c44576020820181803683370190505b5090508181016020015b5f19016f181899199a1a9b1b9c1cb0b131b232b360811b600a86061a8153600a8504945084610c4e57509392505050565b8080610c9357506001600160a01b03821615155b15610d54575f610ca28461085b565b90506001600160a01b03831615801590610cce5750826001600160a01b0316816001600160a01b031614155b8015610ce15750610cdf81846107f1565b155b15610d0a5760405163a9fbf51f60e01b81526001600160a01b038416600482015260240161047b565b8115610d525783856001600160a01b0316826001600160a01b03167f8c5be1e5ebec7d5bd14f71427d1e84f3dd0314c0f7b2291e5b200ac8c7c3b92560405160405180910390a45b505b50505f90815260046020526040902080546001600160a01b0319166001600160a01b0392909216919091179055565b610d8e838383610ed5565b6104fe576001600160a01b038316610dbc57604051637e27328960e01b81526004810182905260240161047b565b60405163177e802f60e01b81526001600160a01b03831660048201526024810182905260440161047b565b610df18383610f39565b6104fe335f858585610ac7565b5f8072184f03e93ff9f4daa797ed6e38ed64bf6a1f0160401b8310610e3c5772184f03e93ff9f4daa797ed6e38ed64bf6a1f0160401b830492506040015b6d04ee2d6d415b85acef81000000008310610e68576d04ee2d6d415b85acef8100000000830492506020015b662386f26fc100008310610e8657662386f26fc10000830492506010015b6305f5e1008310610e9e576305f5e100830492506008015b6127108310610eb257612710830492506004015b60648310610ec4576064830492506002015b600a831061038b5760010192915050565b5f6001600160a01b03831615801590610f315750826001600160a01b0316846001600160a01b03161480610f0e5750610f0e84846107f1565b80610f3157505f828152600460205260409020546001600160a01b038481169116145b949350505050565b6001600160a01b038216610f6257604051633250574960e11b81525f600482015260240161047b565b5f610f6e83835f6108a0565b90506001600160a01b038116156104fe576040516339e3563760e11b81525f600482015260240161047b565b6001600160e01b031981168114610858575f80fd5b5f60208284031215610fbf575f80fd5b813561072481610f9a565b5f5b83811015610fe4578181015183820152602001610fcc565b50505f910152565b5f8151808452611003816020860160208601610fca565b601f01601f19169290920160200192915050565b602081525f6107246020830184610fec565b5f60208284031215611039575f80fd5b5035919050565b80356001600160a01b0381168114610683575f80fd5b5f8060408385031215611067575f80fd5b61107083611040565b946020939093013593505050565b5f805f60608486031215611090575f80fd5b61109984611040565b92506110a760208501611040565b9150604084013590509250925092565b5f602082840312156110c7575f80fd5b61072482611040565b80358015158114610683575f80fd5b5f602082840312156110ef575f80fd5b610724826110d0565b5f8060408385031215611109575f80fd5b61111283611040565b9150611120602084016110d0565b90509250929050565b634e487b7160e01b5f52604160045260245ffd5b5f805f8060808587031215611150575f80fd5b61115985611040565b935061116760208601611040565b925060408501359150606085013567ffffffffffffffff8082111561118a575f80fd5b818701915087601f83011261119d575f80fd5b8135818111156111af576111af611129565b604051601f8201601f19908116603f011681019083821181831017156111d7576111d7611129565b816040528281528a60208487010111156111ef575f80fd5b826020860160208301375f60208483010152809550505050505092959194509250565b5f8060408385031215611223575f80fd5b61122c83611040565b915061112060208401611040565b600181811c9082168061124e57607f821691505b60208210810361126c57634e487b7160e01b5f52602260045260245ffd5b50919050565b6020808252600990820152682737ba1037bbb732b960b91b604082015260600190565b634e487b7160e01b5f52601160045260245ffd5b5f600182016112ba576112ba611295565b5060010190565b5f83516112d2818460208801610fca565b8351908301906112e6818360208801610fca565b01949350505050565b8082018082111561038b5761038b611295565b6001600160a01b03858116825284166020820152604081018390526080606082018190525f9061133490830184610fec565b9695505050505050565b5f6020828403121561134e575f80fd5b815161072481610f9a56fea2646970667358221220e15d0b2725f87925083b361e7b8e42ab9dd6c08677e9ccc08f76e3c019b4e5f064736f6c63430008140033",
  "immutableReferences": {},
  "source": "// SPDX-License-Identifier: MIT\r\npragma solidity ^0.8.20;\r\n\r\nimport \"@openzeppelin/contracts/token/ERC721/ERC721.sol\";\r\nimport \"@openzeppelin/contracts/access/Ownable.sol\";\r\n\r\ncontract ReputationNFT is ERC721, Ownable {\r\n\r\n// ---- Demo mode helper (for Wave-2 demos) ----\r\nbool public demoMode = true;\r\n\r\nmodifier onlyOwnerOrDemo() {\r\n    if (!demoMode) {\r\n        require(owner() == msg.sender, \"Not owner\");\r\n    }\r\n    _;\r\n}\r\n\r\nfunction setDemoMode(bool v) external onlyOwnerOrDemo {\r\n    demoMode = v;\r\n}\r\n// ---------------------------------------------\r\n\r\n    mapping(address => uint256) public reputation;\r\n    uint256 public nextId;\r\n\r\n    event ReputationChanged(address indexed user, uint256 newScore);\r\n    event IdentityMinted(uint256 indexed id, address indexed to);\r\n\r\n    constructor() ERC721(\"HashingHerosRep\",\"HHR\") Ownable(msg.sender) {}\r\n\r\n    function mintIdentity(address to) external onlyOwnerOrDemo returns (uint256) {\r\n        nextId++;\r\n        _safeMint(to, nextId);\r\n        reputation[to] = 0;\r\n        emit IdentityMinted(nextId, to);\r\n        return nextId;\r\n    }\r\n\r\n    function addReputation(address user, uint256 delta) external onlyOwnerOrDemo {\r\n        reputation[user] += delta;\r\n        emit ReputationChanged(user, reputation[user]);\r\n    }\r\n\r\n    function getReputation(address user) external view returns (uint256) {\r\n        return reputation[user];\r\n    }\r\n}\r\n",
  "sourcePath": "C:\\hashheros\\Hash-Heros\\contracts\\ReputationNFT.sol",
  "compiler": {
    "name": "solc",
    "version": "0.8.20+commit.a1b79de6.Emscripten.clang"
  },
  "schemaVersion": "3.4.16",
  "updatedAt": "2025-12-13T22:25:00.817Z",
  "devdoc": {
    "errors": {
      "ERC721IncorrectOwner(address,uint256,address)": [
        {
          "details": "Indicates an error related to the ownership over a particular token. Used in transfers.",
          "params": {
            "owner": "Address of the current owner of a token.",
            "sender": "Address whose tokens are being transferred.",
            "tokenId": "Identifier number of a token."
          }
        }
      ],
      "ERC721InsufficientApproval(address,uint256)": [
        {
          "details": "Indicates a failure with the `operator`s approval. Used in transfers.",
          "params": {
            "operator": "Address that may be allowed to operate on tokens without being their owner.",
            "tokenId": "Identifier number of a token."
          }
        }
      ],
      "ERC721InvalidApprover(address)": [
        {
          "details": "Indicates a failure with the `approver` of a token to be approved. Used in approvals.",
          "params": {
            "approver": "Address initiating an approval operation."
          }
        }
      ],
      "ERC721InvalidOperator(address)": [
        {
          "details": "Indicates a failure with the `operator` to be approved. Used in approvals.",
          "params": {
            "operator": "Address that may be allowed to operate on tokens without being their owner."
          }
        }
      ],
      "ERC721InvalidOwner(address)": [
        {
          "details": "Indicates that an address can't be an owner. For example, `address(0)` is a forbidden owner in ERC-20. Used in balance queries.",
          "params": {
            "owner": "Address of the current owner of a token."
          }
        }
      ],
      "ERC721InvalidReceiver(address)": [
        {
          "details": "Indicates a failure with the token `receiver`. Used in transfers.",
          "params": {
            "receiver": "Address to which tokens are being transferred."
          }
        }
      ],
      "ERC721InvalidSender(address)": [
        {
          "details": "Indicates a failure with the token `sender`. Used in transfers.",
          "params": {
            "sender": "Address whose tokens are being transferred."
          }
        }
      ],
      "ERC721NonexistentToken(uint256)": [
        {
          "details": "Indicates a `tokenId` whose `owner` is the zero address.",
          "params": {
            "tokenId": "Identifier number of a token."
          }
        }
      ],
      "OwnableInvalidOwner(address)": [
        {
          "details": "The owner is not a valid owner account. (eg. `address(0)`)"
        }
      ],
      "OwnableUnauthorizedAccount(address)": [
        {
          "details": "The caller account is not authorized to perform an operation."
        }
      ]
    },
    "events": {
      "Approval(address,address,uint256)": {
        "details": "Emitted when `owner` enables `approved` to manage the `tokenId` token."
      },
      "ApprovalForAll(address,address,bool)": {
        "details": "Emitted when `owner` enables or disables (`approved`) `operator` to manage all of its assets."
      },
      "Transfer(address,address,uint256)": {
        "details": "Emitted when `tokenId` token is transferred from `from` to `to`."
      }
    },
    "kind": "dev",
    "methods": {
      "approve(address,uint256)": {
        "details": "Gives permission to `to` to transfer `tokenId` token to another account. The approval is cleared when the token is transferred. Only a single account can be approved at a time, so approving the zero address clears previous approvals. Requirements: - The caller must own the token or be an approved operator. - `tokenId` must exist. Emits an {Approval} event."
      },
      "balanceOf(address)": {
        "details": "Returns the number of tokens in ``owner``'s account."
      },
      "getApproved(uint256)": {
        "details": "Returns the account approved for `tokenId` token. Requirements: - `tokenId` must exist."
      },
      "isApprovedForAll(address,address)": {
        "details": "Returns if the `operator` is allowed to manage all of the assets of `owner`. See {setApprovalForAll}"
      },
      "name()": {
        "details": "Returns the token collection name."
      },
      "owner()": {
        "details": "Returns the address of the current owner."
      },
      "ownerOf(uint256)": {
        "details": "Returns the owner of the `tokenId` token. Requirements: - `tokenId` must exist."
      },
      "renounceOwnership()": {
        "details": "Leaves the contract without owner. It will not be possible to call `onlyOwner` functions. Can only be called by the current owner. NOTE: Renouncing ownership will leave the contract without an owner, thereby disabling any functionality that is only available to the owner."
      },
      "safeTransferFrom(address,address,uint256)": {
        "details": "Safely transfers `tokenId` token from `from` to `to`, checking first that contract recipients are aware of the ERC-721 protocol to prevent tokens from being forever locked. Requirements: - `from` cannot be the zero address. - `to` cannot be the zero address. - `tokenId` token must exist and be owned by `from`. - If the caller is not `from`, it must have been allowed to move this token by either {approve} or   {setApprovalForAll}. - If `to` refers to a smart contract, it must implement {IERC721Receiver-onERC721Received}, which is called upon   a safe transfer. Emits a {Transfer} event."
      },
      "safeTransferFrom(address,address,uint256,bytes)": {
        "details": "Safely transfers `tokenId` token from `from` to `to`. Requirements: - `from` cannot be the zero address. - `to` cannot be the zero address. - `tokenId` token must exist and be owned by `from`. - If the caller is not `from`, it must be approved to move this token by either {approve} or {setApprovalForAll}. - If `to` refers to a smart contract, it must implement {IERC721Receiver-onERC721Received}, which is called upon   a safe transfer. Emits a {Transfer} event."
      },
      "setApprovalForAll(address,bool)": {
        "details": "Approve or remove `operator` as an operator for the caller. Operators can call {transferFrom} or {safeTransferFrom} for any token owned by the caller. Requirements: - The `operator` cannot be the address zero. Emits an {ApprovalForAll} event."
      },
      "supportsInterface(bytes4)": {
        "details": "Returns true if this contract implements the interface defined by `interfaceId`. See the corresponding https://eips.ethereum.org/EIPS/eip-165#how-interfaces-are-identified[ERC section] to learn more about how these ids are created. This function call must use less than 30 000 gas."
      },
      "symbol()": {
        "details": "Returns the token collection symbol."
      },
      "tokenURI(uint256)": {
        "details": "Returns the Uniform Resource Identifier (URI) for `tokenId` token."
      },
      "transferFrom(address,address,uint256)": {
        "details": "Transfers `tokenId` token from `from` to `to`. WARNING: Note that the caller is responsible to confirm that the recipient is capable of receiving ERC-721 or else they may be permanently lost. Usage of {safeTransferFrom} prevents loss, though the caller must understand this adds an external call which potentially creates a reentrancy vulnerability. Requirements: - `from` cannot be the zero address. - `to` cannot be the zero address. - `tokenId` token must be owned by `from`. - If the caller is not `from`, it must be approved to move this token by either {approve} or {setApprovalForAll}. Emits a {Transfer} event."
      },
      "transferOwnership(address)": {
        "details": "Transfers ownership of the contract to a new account (`newOwner`). Can only be called by the current owner."
      }
    },
    "version": 1
  },
  "userdoc": {
    "kind": "user",
    "methods": {},
    "version": 1
  }
}