{
  "contractName": "UtilityTicketNFT",
  "abi": [
    {
      "inputs": [],
      "stateMutability": "nonpayable",
      "type": "constructor"
    },
    {
      "inputs": [
        {
          "internalType": "address",
          "name": "sender",
          "type": "address"
        },
        {
          "internalType": "uint256",
          "name": "tokenId",
          "type": "uint256"
        },
        {
          "internalType": "address",
          "name": "owner",
          "type": "address"
        }
      ],
      "name": "ERC721IncorrectOwner",
      "type": "error"
    },
    {
      "inputs": [
        {
          "internalType": "address",
          "name": "operator",
          "type": "address"
        },
        {
          "internalType": "uint256",
          "name": "tokenId",
          "type": "uint256"
        }
      ],
      "name": "ERC721InsufficientApproval",
      "type": "error"
    },
    {
      "inputs": [
        {
          "internalType": "address",
          "name": "approver",
          "type": "address"
        }
      ],
      "name": "ERC721InvalidApprover",
      "type": "error"
    },
    {
      "inputs": [
        {
          "internalType": "address",
          "name": "operator",
          "type": "address"
        }
      ],
      "name": "ERC721InvalidOperator",
      "type": "error"
    },
    {
      "inputs": [
        {
          "internalType": "address",
          "name": "owner",
          "type": "address"
        }
      ],
      "name": "ERC721InvalidOwner",
      "type": "error"
    },
    {
      "inputs": [
        {
          "internalType": "address",
          "name": "receiver",
          "type": "address"
        }
      ],
      "name": "ERC721InvalidReceiver",
      "type": "error"
    },
    {
      "inputs": [
        {
          "internalType": "address",
          "name": "sender",
          "type": "address"
        }
      ],
      "name": "ERC721InvalidSender",
      "type": "error"
    },
    {
      "inputs": [
        {
          "internalType": "uint256",
          "name": "tokenId",
          "type": "uint256"
        }
      ],
      "name": "ERC721NonexistentToken",
      "type": "error"
    },
    {
      "inputs": [
        {
          "internalType": "address",
          "name": "owner",
          "type": "address"
        }
      ],
      "name": "OwnableInvalidOwner",
      "type": "error"
    },
    {
      "inputs": [
        {
          "internalType": "address",
          "name": "account",
          "type": "address"
        }
      ],
      "name": "OwnableUnauthorizedAccount",
      "type": "error"
    },
    {
      "anonymous": false,
      "inputs": [
        {
          "indexed": true,
          "internalType": "address",
          "name": "owner",
          "type": "address"
        },
        {
          "indexed": true,
          "internalType": "address",
          "name": "approved",
          "type": "address"
        },
        {
          "indexed": true,
          "internalType": "uint256",
          "name": "tokenId",
          "type": "uint256"
        }
      ],
      "name": "Approval",
      "type": "event"
    },
    {
      "anonymous": false,
      "inputs": [
        {
          "indexed": true,
          "internalType": "address",
          "name": "owner",
          "type": "address"
        },
        {
          "indexed": true,
          "internalType": "address",
          "name": "operator",
          "type": "address"
        },
        {
          "indexed": false,
          "internalType": "bool",
          "name": "approved",
          "type": "bool"
        }
      ],
      "name": "ApprovalForAll",
      "type": "event"
    },
    {
      "anonymous": false,
      "inputs": [
        {
          "indexed": true,
          "internalType": "address",
          "name": "previousOwner",
          "type": "address"
        },
        {
          "indexed": true,
          "internalType": "address",
          "name": "newOwner",
          "type": "address"
        }
      ],
      "name": "OwnershipTransferred",
      "type": "event"
    },
    {
      "anonymous": false,
      "inputs": [
        {
          "indexed": true,
          "internalType": "uint256",
          "name": "id",
          "type": "uint256"
        },
        {
          "indexed": true,
          "internalType": "address",
          "name": "to",
          "type": "address"
        },
        {
          "indexed": false,
          "internalType": "uint256",
          "name": "validUntil",
          "type": "uint256"
        }
      ],
      "name": "TicketIssued",
      "type": "event"
    },
    {
      "anonymous": false,
      "inputs": [
        {
          "indexed": true,
          "internalType": "address",
          "name": "from",
          "type": "address"
        },
        {
          "indexed": true,
          "internalType": "address",
          "name": "to",
          "type": "address"
        },
        {
          "indexed": true,
          "internalType": "uint256",
          "name": "tokenId",
          "type": "uint256"
        }
      ],
      "name": "Transfer",
      "type": "event"
    },
    {
      "inputs": [
        {
          "internalType": "address",
          "name": "to",
          "type": "address"
        },
        {
          "internalType": "uint256",
          "name": "tokenId",
          "type": "uint256"
        }
      ],
      "name": "approve",
      "outputs": [],
      "stateMutability": "nonpayable",
      "type": "function"
    },
    {
      "inputs": [
        {
          "internalType": "address",
          "name": "owner",
          "type": "address"
        }
      ],
      "name": "balanceOf",
      "outputs": [
        {
          "internalType": "uint256",
          "name": "",
          "type": "uint256"
        }
      ],
      "stateMutability": "view",
      "type": "function"
    },
    {
      "inputs": [],
      "name": "demoMode",
      "outputs": [
        {
          "internalType": "bool",
          "name": "",
          "type": "bool"
        }
      ],
      "stateMutability": "view",
      "type": "function"
    },
    {
      "inputs": [
        {
          "internalType": "uint256",
          "name": "tokenId",
          "type": "uint256"
        }
      ],
      "name": "getApproved",
      "outputs": [
        {
          "internalType": "address",
          "name": "",
          "type": "address"
        }
      ],
      "stateMutability": "view",
      "type": "function"
    },
    {
      "inputs": [
        {
          "internalType": "address",
          "name": "owner",
          "type": "address"
        },
        {
          "internalType": "address",
          "name": "operator",
          "type": "address"
        }
      ],
      "name": "isApprovedForAll",
      "outputs": [
        {
          "internalType": "bool",
          "name": "",
          "type": "bool"
        }
      ],
      "stateMutability": "view",
      "type": "function"
    },
    {
      "inputs": [],
      "name": "name",
      "outputs": [
        {
          "internalType": "string",
          "name": "",
          "type": "string"
        }
      ],
      "stateMutability": "view",
      "type": "function"
    },
    {
      "inputs": [],
      "name": "nextId",
      "outputs": [
        {
          "internalType": "uint256",
          "name": "",
          "type": "uint256"
        }
      ],
      "stateMutability": "view",
      "type": "function"
    },
    {
      "inputs": [],
      "name": "owner",
      "outputs": [
        {
          "internalType": "address",
          "name": "",
          "type": "address"
        }
      ],
      "stateMutability": "view",
      "type": "function"
    },
    {
      "inputs": [
        {
          "internalType": "uint256",
          "name": "tokenId",
          "type": "uint256"
        }
      ],
      "name": "ownerOf",
      "outputs": [
        {
          "internalType": "address",
          "name": "",
          "type": "address"
        }
      ],
      "stateMutability": "view",
      "type": "function"
    },
    {
      "inputs": [],
      "name": "renounceOwnership",
      "outputs": [],
      "stateMutability": "nonpayable",
      "type": "function"
    },
    {
      "inputs": [
        {
          "internalType": "address",
          "name": "from",
          "type": "address"
        },
        {
          "internalType": "address",
          "name": "to",
          "type": "address"
        },
        {
          "internalType": "uint256",
          "name": "tokenId",
          "type": "uint256"
        }
      ],
      "name": "safeTransferFrom",
      "outputs": [],
      "stateMutability": "nonpayable",
      "type": "function"
    },
    {
      "inputs": [
        {
          "internalType": "address",
          "name": "from",
          "type": "address"
        },
        {
          "internalType": "address",
          "name": "to",
          "type": "address"
        },
        {
          "internalType": "uint256",
          "name": "tokenId",
          "type": "uint256"
        },
        {
          "internalType": "bytes",
          "name": "data",
          "type": "bytes"
        }
      ],
      "name": "safeTransferFrom",
      "outputs": [],
      "stateMutability": "nonpayable",
      "type": "function"
    },
    {
      "inputs": [
        {
          "internalType": "address",
          "name": "operator",
          "type": "address"
        },
        {
          "internalType": "bool",
          "name": "approved",
          "type": "bool"
        }
      ],
      "name": "setApprovalForAll",
      "outputs": [],
      "stateMutability": "nonpayable",
      "type": "function"
    },
    {
      "inputs": [
        {
          "internalType": "bytes4",
          "name": "interfaceId",
          "type": "bytes4"
        }
      ],
      "name": "supportsInterface",
      "outputs": [
        {
          "internalType": "bool",
          "name": "",
          "type": "bool"
        }
      ],
      "stateMutability": "view",
      "type": "function"
    },
    {
      "inputs": [],
      "name": "symbol",
      "outputs": [
        {
          "internalType": "string",
          "name": "",
          "type": "string"
        }
      ],
      "stateMutability": "view",
      "type": "function"
    },
    {
      "inputs": [
        {
          "internalType": "uint256",
          "name": "",
          "type": "uint256"
        }
      ],
      "name": "tickets",
      "outputs": [
        {
          "internalType": "uint256",
          "name": "validUntil",
          "type": "uint256"
        },
        {
          "internalType": "string",
          "name": "meta",
          "type": "string"
        }
      ],
      "stateMutability": "view",
      "type": "function"
    },
    {
      "inputs": [
        {
          "internalType": "uint256",
          "name": "tokenId",
          "type": "uint256"
        }
      ],
      "name": "tokenURI",
      "outputs": [
        {
          "internalType": "string",
          "name": "",
          "type": "string"
        }
      ],
      "stateMutability": "view",
      "type": "function"
    },
    {
      "inputs": [
        {
          "internalType": "address",
          "name": "from",
          "type": "address"
        },
        {
          "internalType": "address",
          "name": "to",
          "type": "address"
        },
        {
          "internalType": "uint256",
          "name": "tokenId",
          "type": "uint256"
        }
      ],
      "name": "transferFrom",
      "outputs": [],
      "stateMutability": "nonpayable",
      "type": "function"
    },
    {
      "inputs": [
        {
          "internalType": "address",
          "name": "newOwner",
          "type": "address"
        }
      ],
      "name": "transferOwnership",
      "outputs": [],
      "stateMutability": "nonpayable",
      "type": "function"
    },
    {
      "inputs": [
        {
          "internalType": "bool",
          "name": "v",
          "type": "bool"
        }
      ],
      "name": "setDemoMode",
      "outputs": [],
      "stateMutability": "nonpayable",
      "type": "function"
    },
    {
      "inputs": [
        {
          "internalType": "address",
          "name": "to",
          "type": "address"
        },
        {
          "internalType": "uint256",
          "name": "daysValid",
          "type": "uint256"
        },
        {
          "internalType": "string",
          "name": "meta",
          "type": "string"
        }
      ],
      "name": "issueTicket",
      "outputs": [
        {
          "internalType": "uint256",
          "name": "",
          "type": "uint256"
        }
      ],
      "stateMutability": "nonpayable",
      "type": "function"
    },
    {
      "inputs": [
        {
          "internalType": "uint256",
          "name": "tokenId",
          "type": "uint256"
        }
      ],
      "name": "isValid",
      "outputs": [
        {
          "internalType": "bool",
          "name": "",
          "type": "bool"
        }
      ],
      "stateMutability": "view",
      "type": "function"
    },
    {
      "inputs": [
        {
          "internalType": "uint256",
          "name": "tokenId",
          "type": "uint256"
        }
      ],
      "name": "ticketMeta",
      "outputs": [
        {
          "internalType": "string",
          "name": "",
          "type": "string"
        }
      ],
      "stateMutability": "view",
      "type": "function"
    }
  ],
  "bytecode": "0x60806040526006805460ff60a01b1916600160a01b17905534801562000023575f80fd5b50336040518060400160405280601281526020017112185cda1a5b99d2195c9bdcd51a58dad95d60721b8152506040518060400160405280600381526020016212121560ea1b815250815f90816200007c9190620001bf565b5060016200008b8282620001bf565b5050506001600160a01b038116620000bc57604051631e4fbdf760e01b81525f600482015260240160405180910390fd5b620000c781620000ce565b5062000287565b600680546001600160a01b038381166001600160a01b0319831681179093556040519116919082907f8be0079c531659141344cd1fd0a4f28419497f9722a3daafe3b4186f6b6457e0905f90a35050565b634e487b7160e01b5f52604160045260245ffd5b600181811c908216806200014857607f821691505b6020821081036200016757634e487b7160e01b5f52602260045260245ffd5b50919050565b601f821115620001ba575f81815260208120601f850160051c81016020861015620001955750805b601f850160051c820191505b81811015620001b657828155600101620001a1565b5050505b505050565b81516001600160401b03811115620001db57620001db6200011f565b620001f381620001ec845462000133565b846200016d565b602080601f83116001811462000229575f8415620002115750858301515b5f19600386901b1c1916600185901b178555620001b6565b5f85815260208120601f198616915b82811015620002595788860151825594840194600190910190840162000238565b50858210156200027757878501515f19600388901b60f8161c191681555b5050505050600190811b01905550565b61166e80620002955f395ff3fe608060405234801561000f575f80fd5b5060043610610148575f3560e01c806370a08231116100bf578063a22cb46511610079578063a22cb465146102bb578063b88d4fde146102ce578063c87b56dd146102e1578063e985e9c5146102f4578063f2fde38b14610307578063f577a5001461031a575f80fd5b806370a0823114610261578063715018a6146102745780637edadd541461027c5780637f8719751461028f5780638da5cb5b146102a257806395d89b41146102b3575f80fd5b80633b80b6ff116101105780633b80b6ff146101dc57806342842e0e146101fd57806344ba06d51461021057806350b447121461022457806361b8ce8c146102455780636352211e1461024e575f80fd5b806301ffc9a71461014c57806306fdde0314610174578063081812fc14610189578063095ea7b3146101b457806323b872dd146101c9575b5f80fd5b61015f61015a3660046110fc565b61033c565b60405190151581526020015b60405180910390f35b61017c61038d565b60405161016b9190611164565b61019c610197366004611176565b61041c565b6040516001600160a01b03909116815260200161016b565b6101c76101c23660046111a8565b610443565b005b6101c76101d73660046111d0565b610452565b6101ef6101ea366004611209565b6104e0565b60405190815260200161016b565b6101c761020b3660046111d0565b610652565b60065461015f90600160a01b900460ff1681565b610237610232366004611176565b610671565b60405161016b929190611289565b6101ef60085481565b61019c61025c366004611176565b610713565b6101ef61026f3660046112a1565b61071d565b6101c7610762565b6101c761028a3660046112c9565b610775565b61017c61029d366004611176565b6107f9565b6006546001600160a01b031661019c565b61017c61089b565b6101c76102c93660046112e2565b6108aa565b6101c76102dc366004611327565b6108b5565b61017c6102ef366004611176565b6108cd565b61015f6103023660046113fc565b61093e565b6101c76103153660046112a1565b61096b565b61015f610328366004611176565b5f9081526007602052604090205442111590565b5f6001600160e01b031982166380ac58cd60e01b148061036c57506001600160e01b03198216635b5e139f60e01b145b8061038757506301ffc9a760e01b6001600160e01b03198316145b92915050565b60605f805461039b90611424565b80601f01602080910402602001604051908101604052809291908181526020018280546103c790611424565b80156104125780601f106103e957610100808354040283529160200191610412565b820191905f5260205f20905b8154815290600101906020018083116103f557829003601f168201915b5050505050905090565b5f610426826109a8565b505f828152600460205260409020546001600160a01b0316610387565b61044e8282336109e0565b5050565b6001600160a01b03821661048057604051633250574960e11b81525f60048201526024015b60405180910390fd5b5f61048c8383336109ed565b9050836001600160a01b0316816001600160a01b0316146104da576040516364283d7b60e01b81526001600160a01b0380861660048301526024820184905282166044820152606401610477565b50505050565b6006545f90600160a01b900460ff1661054857336105066006546001600160a01b031690565b6001600160a01b0316146105485760405162461bcd60e51b81526020600482015260096024820152682737ba1037bbb732b960b91b6044820152606401610477565b60088054905f61055783611470565b919050555061056885600854610adf565b604051806040016040528085620151806105829190611488565b61058c904261149f565b815260200184848080601f0160208091040260200160405190810160405280939291908181526020018383808284375f9201829052509390945250506008548152600760209081526040909120835181559083015190915060018201906105f390826114f7565b50506008545f818152600760209081526040918290205491519182526001600160a01b03891693507f885aea068dfc8d64b3da0c1131d16d6e26947c043fb441c446de14a01087540d910160405180910390a350600854949350505050565b61066c83838360405180602001604052805f8152506108b5565b505050565b60076020525f90815260409020805460018201805491929161069290611424565b80601f01602080910402602001604051908101604052809291908181526020018280546106be90611424565b80156107095780601f106106e057610100808354040283529160200191610709565b820191905f5260205f20905b8154815290600101906020018083116106ec57829003601f168201915b5050505050905082565b5f610387826109a8565b5f6001600160a01b038216610747576040516322718ad960e21b81525f6004820152602401610477565b506001600160a01b03165f9081526003602052604090205490565b61076a610af8565b6107735f610b25565b565b600654600160a01b900460ff166107db57336107996006546001600160a01b031690565b6001600160a01b0316146107db5760405162461bcd60e51b81526020600482015260096024820152682737ba1037bbb732b960b91b6044820152606401610477565b60068054911515600160a01b0260ff60a01b19909216919091179055565b5f81815260076020526040902060010180546060919061081890611424565b80601f016020809104026020016040519081016040528092919081815260200182805461084490611424565b801561088f5780601f106108665761010080835404028352916020019161088f565b820191905f5260205f20905b81548152906001019060200180831161087257829003601f168201915b50505050509050919050565b60606001805461039b90611424565b61044e338383610b76565b6108c0848484610452565b6104da3385858585610c14565b60606108d8826109a8565b505f6108ee60408051602081019091525f815290565b90505f81511161090c5760405180602001604052805f815250610937565b8061091684610d3c565b6040516020016109279291906115b3565b6040516020818303038152906040525b9392505050565b6001600160a01b039182165f90815260056020908152604080832093909416825291909152205460ff1690565b610973610af8565b6001600160a01b03811661099c57604051631e4fbdf760e01b81525f6004820152602401610477565b6109a581610b25565b50565b5f818152600260205260408120546001600160a01b03168061038757604051637e27328960e01b815260048101849052602401610477565b61066c8383836001610dcc565b5f828152600260205260408120546001600160a01b0390811690831615610a1957610a19818486610ed0565b6001600160a01b03811615610a5357610a345f855f80610dcc565b6001600160a01b0381165f90815260036020526040902080545f190190555b6001600160a01b03851615610a81576001600160a01b0385165f908152600360205260409020805460010190555b5f8481526002602052604080822080546001600160a01b0319166001600160a01b0389811691821790925591518793918516917fddf252ad1be2c89b69c2b068fc378daa952ba7f163c4a11628f55a4df523b3ef91a4949350505050565b61044e828260405180602001604052805f815250610f34565b6006546001600160a01b031633146107735760405163118cdaa760e01b8152336004820152602401610477565b600680546001600160a01b038381166001600160a01b0319831681179093556040519116919082907f8be0079c531659141344cd1fd0a4f28419497f9722a3daafe3b4186f6b6457e0905f90a35050565b6001600160a01b038216610ba857604051630b61174360e31b81526001600160a01b0383166004820152602401610477565b6001600160a01b038381165f81815260056020908152604080832094871680845294825291829020805460ff191686151590811790915591519182527f17307eab39ab6107e8899845ad3d59bd9653f200f220920489ca2b5937696c31910160405180910390a3505050565b6001600160a01b0383163b15610d3557604051630a85bd0160e11b81526001600160a01b0384169063150b7a0290610c569088908890879087906004016115e1565b6020604051808303815f875af1925050508015610c90575060408051601f3d908101601f19168201909252610c8d9181019061161d565b60015b610cf7573d808015610cbd576040519150601f19603f3d011682016040523d82523d5f602084013e610cc2565b606091505b5080515f03610cef57604051633250574960e11b81526001600160a01b0385166004820152602401610477565b805160208201fd5b6001600160e01b03198116630a85bd0160e11b14610d3357604051633250574960e11b81526001600160a01b0385166004820152602401610477565b505b5050505050565b60605f610d4883610f4b565b60010190505f8167ffffffffffffffff811115610d6757610d67611313565b6040519080825280601f01601f191660200182016040528015610d91576020820181803683370190505b5090508181016020015b5f19016f181899199a1a9b1b9c1cb0b131b232b360811b600a86061a8153600a8504945084610d9b57509392505050565b8080610de057506001600160a01b03821615155b15610ea1575f610def846109a8565b90506001600160a01b03831615801590610e1b5750826001600160a01b0316816001600160a01b031614155b8015610e2e5750610e2c818461093e565b155b15610e575760405163a9fbf51f60e01b81526001600160a01b0384166004820152602401610477565b8115610e9f5783856001600160a01b0316826001600160a01b03167f8c5be1e5ebec7d5bd14f71427d1e84f3dd0314c0f7b2291e5b200ac8c7c3b92560405160405180910390a45b505b50505f90815260046020526040902080546001600160a01b0319166001600160a01b0392909216919091179055565b610edb838383611022565b61066c576001600160a01b038316610f0957604051637e27328960e01b815260048101829052602401610477565b60405163177e802f60e01b81526001600160a01b038316600482015260248101829052604401610477565b610f3e8383611086565b61066c335f858585610c14565b5f8072184f03e93ff9f4daa797ed6e38ed64bf6a1f0160401b8310610f895772184f03e93ff9f4daa797ed6e38ed64bf6a1f0160401b830492506040015b6d04ee2d6d415b85acef81000000008310610fb5576d04ee2d6d415b85acef8100000000830492506020015b662386f26fc100008310610fd357662386f26fc10000830492506010015b6305f5e1008310610feb576305f5e100830492506008015b6127108310610fff57612710830492506004015b60648310611011576064830492506002015b600a83106103875760010192915050565b5f6001600160a01b0383161580159061107e5750826001600160a01b0316846001600160a01b0316148061105b575061105b848461093e565b8061107e57505f828152600460205260409020546001600160a01b038481169116145b949350505050565b6001600160a01b0382166110af57604051633250574960e11b81525f6004820152602401610477565b5f6110bb83835f6109ed565b90506001600160a01b0381161561066c576040516339e3563760e11b81525f6004820152602401610477565b6001600160e01b0319811681146109a5575f80fd5b5f6020828403121561110c575f80fd5b8135610937816110e7565b5f5b83811015611131578181015183820152602001611119565b50505f910152565b5f8151808452611150816020860160208601611117565b601f01601f19169290920160200192915050565b602081525f6109376020830184611139565b5f60208284031215611186575f80fd5b5035919050565b80356001600160a01b03811681146111a3575f80fd5b919050565b5f80604083850312156111b9575f80fd5b6111c28361118d565b946020939093013593505050565b5f805f606084860312156111e2575f80fd5b6111eb8461118d565b92506111f96020850161118d565b9150604084013590509250925092565b5f805f806060858703121561121c575f80fd5b6112258561118d565b935060208501359250604085013567ffffffffffffffff80821115611248575f80fd5b818701915087601f83011261125b575f80fd5b813581811115611269575f80fd5b88602082850101111561127a575f80fd5b95989497505060200194505050565b828152604060208201525f61107e6040830184611139565b5f602082840312156112b1575f80fd5b6109378261118d565b803580151581146111a3575f80fd5b5f602082840312156112d9575f80fd5b610937826112ba565b5f80604083850312156112f3575f80fd5b6112fc8361118d565b915061130a602084016112ba565b90509250929050565b634e487b7160e01b5f52604160045260245ffd5b5f805f806080858703121561133a575f80fd5b6113438561118d565b93506113516020860161118d565b925060408501359150606085013567ffffffffffffffff80821115611374575f80fd5b818701915087601f830112611387575f80fd5b81358181111561139957611399611313565b604051601f8201601f19908116603f011681019083821181831017156113c1576113c1611313565b816040528281528a60208487010111156113d9575f80fd5b826020860160208301375f60208483010152809550505050505092959194509250565b5f806040838503121561140d575f80fd5b6114168361118d565b915061130a6020840161118d565b600181811c9082168061143857607f821691505b60208210810361145657634e487b7160e01b5f52602260045260245ffd5b50919050565b634e487b7160e01b5f52601160045260245ffd5b5f600182016114815761148161145c565b5060010190565b80820281158282048414176103875761038761145c565b808201808211156103875761038761145c565b601f82111561066c575f81815260208120601f850160051c810160208610156114d85750805b601f850160051c820191505b81811015610d33578281556001016114e4565b815167ffffffffffffffff81111561151157611511611313565b6115258161151f8454611424565b846114b2565b602080601f831160018114611558575f84156115415750858301515b5f19600386901b1c1916600185901b178555610d33565b5f85815260208120601f198616915b8281101561158657888601518255948401946001909101908401611567565b50858210156115a357878501515f19600388901b60f8161c191681555b5050505050600190811b01905550565b5f83516115c4818460208801611117565b8351908301906115d8818360208801611117565b01949350505050565b6001600160a01b03858116825284166020820152604081018390526080606082018190525f9061161390830184611139565b9695505050505050565b5f6020828403121561162d575f80fd5b8151610937816110e756fea2646970667358221220a65f057f079d25b7edc22187f73a6c2c3dfd3f23c5c516a2523ee7878dff493964736f6c63430008140033",
  "immutableReferences": {},
  "source": "// SPDX-License-Identifier: MIT\r\npragma solidity ^0.8.20;\r\n\r\nimport \"@openzeppelin/contracts/token/ERC721/ERC721.sol\";\r\nimport \"@openzeppelin/contracts/access/Ownable.sol\";\r\n\r\ncontract UtilityTicketNFT is ERC721, Ownable {\r\n\r\n// ---- Demo mode helper (for Wave-2 demos) ----\r\nbool public demoMode = true;\r\n\r\nmodifier onlyOwnerOrDemo() {\r\n    if (!demoMode) {\r\n        require(owner() == msg.sender, \"Not owner\");\r\n    }\r\n    _;\r\n}\r\n\r\nfunction setDemoMode(bool v) external onlyOwnerOrDemo {\r\n    demoMode = v;\r\n}\r\n// ---------------------------------------------\r\n\r\n    struct Ticket { uint256 validUntil; string meta; }\r\n    mapping(uint256 => Ticket) public tickets;\r\n    uint256 public nextId;\r\n\r\n    event TicketIssued(uint256 indexed id, address indexed to, uint256 validUntil);\r\n\r\n    constructor() ERC721(\"HashingHerosTicket\",\"HHT\") Ownable(msg.sender) {}\r\n\r\n    function issueTicket(address to, uint256 daysValid, string calldata meta) external onlyOwnerOrDemo returns (uint256) {\r\n        nextId++;\r\n        _safeMint(to, nextId);\r\n        tickets[nextId] = Ticket(block.timestamp + (daysValid * 1 days), meta);\r\n        emit TicketIssued(nextId, to, tickets[nextId].validUntil);\r\n        return nextId;\r\n    }\r\n\r\n    function isValid(uint256 tokenId) external view returns (bool) {\r\n        return tickets[tokenId].validUntil >= block.timestamp;\r\n    }\r\n\r\n    function ticketMeta(uint256 tokenId) external view returns (string memory) {\r\n        return tickets[tokenId].meta;\r\n    }\r\n}\r\n",
  "sourcePath": "C:\\hashheros\\Hash-Heros\\contracts\\UtilityTicketNFT.sol",
  "compiler": {
    "name": "solc",
    "version": "0.8.20+commit.a1b79de6.Emscripten.clang"
  },
  "schemaVersion": "3.4.16",
  "updatedAt": "2025-12-13T22:25:00.826Z",
  "devdoc": {
    "errors": {
      "ERC721IncorrectOwner(address,uint256,address)": [
        {
          "details": "Indicates an error related to the ownership over a particular token. Used in transfers.",
          "params": {
            "owner": "Address of the current owner of a token.",
            "sender": "Address whose tokens are being transferred.",
            "tokenId": "Identifier number of a token."
          }
        }
      ],
      "ERC721InsufficientApproval(address,uint256)": [
        {
          "details": "Indicates a failure with the `operator`s approval. Used in transfers.",
          "params": {
            "operator": "Address that may be allowed to operate on tokens without being their owner.",
            "tokenId": "Identifier number of a token."
          }
        }
      ],
      "ERC721InvalidApprover(address)": [
        {
          "details": "Indicates a failure with the `approver` of a token to be approved. Used in approvals.",
          "params": {
            "approver": "Address initiating an approval operation."
          }
        }
      ],
      "ERC721InvalidOperator(address)": [
        {
          "details": "Indicates a failure with the `operator` to be approved. Used in approvals.",
          "params": {
            "operator": "Address that may be allowed to operate on tokens without being their owner."
          }
        }
      ],
      "ERC721InvalidOwner(address)": [
        {
          "details": "Indicates that an address can't be an owner. For example, `address(0)` is a forbidden owner in ERC-20. Used in balance queries.",
          "params": {
            "owner": "Address of the current owner of a token."
          }
        }
      ],
      "ERC721InvalidReceiver(address)": [
        {
          "details": "Indicates a failure with the token `receiver`. Used in transfers.",
          "params": {
            "receiver": "Address to which tokens are being transferred."
          }
        }
      ],
      "ERC721InvalidSender(address)": [
        {
          "details": "Indicates a failure with the token `sender`. Used in transfers.",
          "params": {
            "sender": "Address whose tokens are being transferred."
          }
        }
      ],
      "ERC721NonexistentToken(uint256)": [
        {
          "details": "Indicates a `tokenId` whose `owner` is the zero address.",
          "params": {
            "tokenId": "Identifier number of a token."
          }
        }
      ],
      "OwnableInvalidOwner(address)": [
        {
          "details": "The owner is not a valid owner account. (eg. `address(0)`)"
        }
      ],
      "OwnableUnauthorizedAccount(address)": [
        {
          "details": "The caller account is not authorized to perform an operation."
        }
      ]
    },
    "events": {
      "Approval(address,address,uint256)": {
        "details": "Emitted when `owner` enables `approved` to manage the `tokenId` token."
      },
      "ApprovalForAll(address,address,bool)": {
        "details": "Emitted when `owner` enables or disables (`approved`) `operator` to manage all of its assets."
      },
      "Transfer(address,address,uint256)": {
        "details": "Emitted when `tokenId` token is transferred from `from` to `to`."
      }
    },
    "kind": "dev",
    "methods": {
      "approve(address,uint256)": {
        "details": "Gives permission to `to` to transfer `tokenId` token to another account. The approval is cleared when the token is transferred. Only a single account can be approved at a time, so approving the zero address clears previous approvals. Requirements: - The caller must own the token or be an approved operator. - `tokenId` must exist. Emits an {Approval} event."
      },
      "balanceOf(address)": {
        "details": "Returns the number of tokens in ``owner``'s account."
      },
      "getApproved(uint256)": {
        "details": "Returns the account approved for `tokenId` token. Requirements: - `tokenId` must exist."
      },
      "isApprovedForAll(address,address)": {
        "details": "Returns if the `operator` is allowed to manage all of the assets of `owner`. See {setApprovalForAll}"
      },
      "name()": {
        "details": "Returns the token collection name."
      },
      "owner()": {
        "details": "Returns the address of the current owner."
      },
      "ownerOf(uint256)": {
        "details": "Returns the owner of the `tokenId` token. Requirements: - `tokenId` must exist."
      },
      "renounceOwnership()": {
        "details": "Leaves the contract without owner. It will not be possible to call `onlyOwner` functions. Can only be called by the current owner. NOTE: Renouncing ownership will leave the contract without an owner, thereby disabling any functionality that is only available to the owner."
      },
      "safeTransferFrom(address,address,uint256)": {
        "details": "Safely transfers `tokenId` token from `from` to `to`, checking first that contract recipients are aware of the ERC-721 protocol to prevent tokens from being forever locked. Requirements: - `from` cannot be the zero address. - `to` cannot be the zero address. - `tokenId` token must exist and be owned by `from`. - If the caller is not `from`, it must have been allowed to move this token by either {approve} or   {setApprovalForAll}. - If `to` refers to a smart contract, it must implement {IERC721Receiver-onERC721Received}, which is called upon   a safe transfer. Emits a {Transfer} event."
      },
      "safeTransferFrom(address,address,uint256,bytes)": {
        "details": "Safely transfers `tokenId` token from `from` to `to`. Requirements: - `from` cannot be the zero address. - `to` cannot be the zero address. - `tokenId` token must exist and be owned by `from`. - If the caller is not `from`, it must be approved to move this token by either {approve} or {setApprovalForAll}. - If `to` refers to a smart contract, it must implement {IERC721Receiver-onERC721Received}, which is called upon   a safe transfer. Emits a {Transfer} event."
      },
      "setApprovalForAll(address,bool)": {
        "details": "Approve or remove `operator` as an operator for the caller. Operators can call {transferFrom} or {safeTransferFrom} for any token owned by the caller. Requirements: - The `operator` cannot be the address zero. Emits an {ApprovalForAll} event."
      },
      "supportsInterface(bytes4)": {
        "details": "Returns true if this contract implements the interface defined by `interfaceId`. See the corresponding https://eips.ethereum.org/EIPS/eip-165#how-interfaces-are-identified[ERC section] to learn more about how these ids are created. This function call must use less than 30 000 gas."
      },
      "symbol()": {
        "details": "Returns the token collection symbol."
      },
      "tokenURI(uint256)": {
        "details": "Returns the Uniform Resource Identifier (URI) for `tokenId` token."
      },
      "transferFrom(address,address,uint256)": {
        "details": "Transfers `tokenId` token from `from` to `to`. WARNING: Note that the caller is responsible to confirm that the recipient is capable of receiving ERC-721 or else they may be permanently lost. Usage of {safeTransferFrom} prevents loss, though the caller must understand this adds an external call which potentially creates a reentrancy vulnerability. Requirements: - `from` cannot be the zero address. - `to` cannot be the zero address. - `tokenId` token must be owned by `from`. - If the caller is not `from`, it must be approved to move this token by either {approve} or {setApprovalForAll}. Emits a {Transfer} event."
      },
      "transferOwnership(address)": {
        "details": "Transfers ownership of the contract to a new account (`newOwner`). Can only be called by the current owner."
      }
    },
    "version": 1
  },
  "userdoc": {
    "kind": "user",
    "methods": {},
    "version": 1
  }
}